:100000000C9471000C9499000C9499000C94990034
:100010000C9499000C9499000C9499000C949900FC
:100020000C9499000C9499000C9499000C949900EC
:100030000C9499000C9499000C9499000C949900DC
:100040000C9462020C9499000C94D2020C94AC02B1
:100050000C9499000C9499000C9499000C949900BC
:100060000C9499000C9499004E414E494E495459B4
:10007000494E46CDCCCC3D0AD7233C17B7D1387773
:10008000CC2B329595E6241FB14F0A000020410089
:1000900000C84200401C4620BCBE4CCA1B0E5AAED3
:1000A000C59D7400000000250028002B0000000002
:1000B00000240027002A00040404040404040402A9
:1000C00002020202020303030303030102040810F5
:1000D00020408001020408102001020408102000C2
:1000E000040311241FBECFEFD8E0DEBFCDBF21E057
:1000F000A8E2B1E001C01D92AA3DB207E1F711E00C
:10010000A0E0B1E0ECE5F6E102C005900D92A83266
:10011000B107D9F710E0C1E7D0E004C02197FE0194
:100120000E943409C037D107C9F70E9437030C94E5
:100130002C0B0C9400000895AF92BF92CF92DF92E7
:10014000EF92FF920F931F93CF93DF936C017B018C
:100150008B01040F151FEB015E01AE18BF08C0171D
:10016000D10759F06991D601ED91FC910190F08190
:10017000E02DC6010995892B79F7C501DF91CF9153
:100180001F910F91FF90EF90DF90CF90BF90AF90B5
:100190000895FC01538D448D252F30E0842F90E08D
:1001A000821B930B541710F0CF9608950197089572
:1001B000FC01918D828D981761F0A28DAE0FBF2F3B
:1001C000B11D5D968C91928D9F5F9F73928F90E091
:1001D00008958FEF9FEF08952FB7F8948091310124
:1001E00090913201A0913301B09134012FBF8093DF
:1001F0003D0190933E01A0933F01B093400185E300
:1002000091E00E94D80097FF26C02FB7F894809104
:10021000310190913201A0913301B09134012FBF8F
:1002200040913D0150913E0160913F01709140012C
:10023000841B950BA60BB70B4091390150913A01E5
:1002400060913B0170913C0184179507A607B707A1
:10025000B0F28FEF9FEF0895FC01918D828D98177A
:1002600031F0828DE80FF11D858D90E008958FEFBC
:100270009FEF0895FC01918D228D892F90E0805C85
:100280009F4F821B91098F739927089585E391E011
:100290000E943A0121E0892B09F420E0822F089581
:1002A00080E090E0892B29F00E94460181110C9496
:1002B00000000895FC01A48DA80FB92FB11DA35A09
:1002C000BF4F2C91848D90E001968F739927848F76
:1002D000A689B7892C93A089B1898C918370806499
:1002E0008C93938D848D981306C00288F389E02D3A
:1002F00080818F7D80830895EF92FF920F931F93EB
:10030000CF93DF93EC0181E0888F9B8D8C8D9813C8
:100310001AC0E889F989808185FF15C09FB7F894D4
:10032000EE89FF896083E889F98980818370806420
:1003300080839FBF81E090E0DF91CF911F910F916B
:10034000FF90EF900895F62E0B8D10E00F5F1F4F7A
:100350000F731127E02E8C8D8E110CC00FB607FC89
:10036000FACFE889F989808185FFF5CFCE010E9417
:100370005A01F1CFEB8DEC0FFD2FF11DE35AFF4F2A
:10038000F0829FB7F8940B8FEA89FB8980818062A5
:10039000CFCFCF93DF93EC01888D8823B9F0AA8962
:1003A000BB89E889F9898C9185FD03C0808186FD30
:1003B0000DC00FB607FCF7CF8C9185FFF2CF80817F
:1003C00085FFEDCFCE010E945A01E9CFDF91CF9199
:1003D0000895FC0101900020E9F73197AF01481B17
:1003E000590BBC0185E391E00C949C008F929F9285
:1003F000AF92BF920F931F93CF93DF93CDB7DEB72A
:10040000A1970FB6F894DEBF0FBECDBF19A2423040
:1004100008F44AE08E010F5D1F4F842E912CB12C01
:10042000A12CA50194010E941209E62FB901CA016D
:10043000EA30F4F4E05DD801EE938D01232B242BF8
:10044000252B79F790E080E0109719F0CD010E94FC
:10045000E901A1960FB6F894DEBF0FBECDBFDF91C4
:10046000CF911F910F91BF90AF909F908F90089563
:10047000E95CE1CF0F931F93CF93DF93EC01888169
:100480009981009759F02A813B812617370730F070
:1004900081E0DF91CF911F910F9108958B016F5FE4
:1004A0007F4F0E945F0A009759F0998388831B83CE
:1004B0000A832C813D81232B59F7FC011082E8CF60
:1004C00080E0E7CF1F920F920FB60F9211242F9367
:1004D0003F938F939F93AF93BF93809131019091FE
:1004E0003201A0913301B09134013091300123E009
:1004F000230F2D3758F50196A11DB11D2093300112
:100500008093310190933201A0933301B093340171
:1005100080912C0190912D01A0912E01B0912F017D
:100520000196A11DB11D80932C0190932D01A093E4
:100530002E01B0932F01BF91AF919F918F913F9169
:100540002F910F900FBE0F901F90189526E8230F44
:100550000296A11DB11DD2CF1F920F920FB60F921E
:1005600011242F933F934F935F936F937F938F93B8
:100570009F93AF93BF93EF93FF9385E391E00E9426
:100580005A01FF91EF91BF91AF919F918F917F9110
:100590006F915F914F913F912F910F900FBE0F90F0
:1005A0001F9018951F920F920FB60F9211242F9340
:1005B0008F939F93EF93FF93E0914501F091460154
:1005C0008081E0914B01F0914C0182FD1BC0908134
:1005D00080914E018F5F8F7320914F01821741F000
:1005E000E0914E01F0E0EB5CFE4F958F80934E0161
:1005F000FF91EF919F918F912F910F900FBE0F90D0
:100600001F9018958081F4CFE5E3F1E01382128208
:1006100088EE93E0A0E0B0E084839583A683B7835F
:100620008AE091E09183808385EC90E095878487D0
:1006300084EC90E09787868780EC90E0918B808BAC
:1006400081EC90E0938B828B82EC90E0958B848B95
:1006500086EC90E0978B868B118E128E138E148E03
:1006600084E090E09093D3018093D2010895CF93DA
:10067000DF93CDB7DEB72E970FB6F894DEBF0FBE6F
:10068000CDBF789484B5826084BD84B5816084BD1B
:1006900085B5826085BD85B5816085BD80916E0020
:1006A000816080936E001092810080918100826051
:1006B000809381008091810081608093810080918E
:1006C00080008160809380008091B100846080937D
:1006D000B1008091B00081608093B00080917A0079
:1006E000846080937A0080917A00826080937A009F
:1006F00080917A00816080937A0080917A0080688E
:1007000080937A001092C100E0914501F09146017A
:1007100082E08083E0914101F09142011082E091FA
:100720004301F09144018FEC808310924D01E091E0
:100730004901F0914A0186E08083E0914701F09100
:100740004801808180618083E0914701F0914801F8
:10075000808188608083E0914701F0914801808129
:1007600080688083E0914701F091480180818F7D0E
:100770008083E8EDF0E02491E4ECF0E084918823BC
:1007800099F090E0880F991FFC01E355FF4FA59168
:10079000B491FC01ED55FF4F859194918FB7F8947A
:1007A000EC91E22BEC938FBF00E010E018861F82E3
:1007B0001A8619861C861B8670E060E0CE010796BB
:1007C0000E943A022F813885811150C021153105D0
:1007D00019F0C9010E94D60918861F821C861B8643
:1007E0001A86198685E391E00E943A0118161906C7
:1007F0000CF069C01A8219821C821B821E821D8223
:1008000070E060E0CE0101960E943A0229813A81AF
:10081000811134C02115310519F0C9010E94D60992
:100820001A8219821E821D821C821B820E94EC0089
:1008300097FD2CC08D871E86ED80FE808FEFE81A15
:10084000F80AB701CE0101960E943A02882371F39B
:1008500029813A818D819E81BE01635F7F4F820F26
:10086000931F0E94250BFE82ED82E0CF1C861B8623
:1008700066E271E0C9010E94250BB4CF1E821D8281
:1008800066E271E0C9010E94250BD0CF8F81988567
:10089000009709F47DC069817A816115710509F4B9
:1008A00075C049855A852D813E814217530708F44A
:1008B0006DC00E94250B8D819E819C878B878981CD
:1008C0009A810E94D6098F819885C12CD12C7601FE
:1008D000009721F00E9469056B017C01C0922801FC
:1008E000D0922901E0922A01F0922B01A7019601F2
:1008F000C701B6010E940D09882309F458C088E198
:1009000091E00E94E90184E291E00E94E90120E087
:1009100030E0A901609128017091290180912A019C
:1009200090912B010E940809181604F58090D201BD
:100930009090D30188E2C82E81E0D82EF12CE12CD2
:10094000F60171906F015401AE0CBF1CC5010E94ED
:100950000508781621F0672DC5010E940D08FFEFEC
:10096000EF1AFF0A84E0E816F10451F78F819885A9
:100970000E94D6090115110509F418CF0E944601FD
:10098000882309F413CF0E94000010CF0E94D609DB
:1009900089819A8198878F838B819C819A878987A7
:1009A0008D819E819C878B871A82198288CF460110
:1009B0005701E894B7F82FEF3FEF4FE75FE7C50126
:1009C000B4010E940D0981110DC02FEF3FEF4FE7D9
:1009D0005FE7C501B4010E94DE0618161CF48CE125
:1009E00091E08FCF2FEF3FEF4FE75FE4C701B601F4
:1009F0000E94080918161CF480E291E082CF2FEFC4
:100A00003FEF4FE75FECC701B6010E94DE0687FDAE
:100A1000F3CF20E030E0A901C701B6010E94DE0655
:100A200087FF09C06DE285E391E00E947C01F7FA3F
:100A3000F094F7F8F0942AE037ED43EA5BE3C7015E
:100A4000B6010E946D084B015C010E94D9086B0140
:100A50007C010E94E3069B01AC01C501B4010E9428
:100A60006C084B015C014AE0C701B6010E94F60127
:100A70006EE285E391E00E947C0120E030E040E2FC
:100A800051E4C501B4010E9444074B015C010E947E
:100A9000D9086B01F12CE12C4AE0C701B6010E9494
:100AA000F601C701B6010E94E3069B01AC01C50136
:100AB000B4010E946C0820E030E040E251E40E9462
:100AC00044070E94D90890E080E04AE00E94F601C5
:100AD0001ACF662777270C946D05B0E0A0E0E3E716
:100AE000F5E00C942C085C017B016115710519F08F
:100AF000DB018D939C9385010F5F1F4FF501D08122
:100B00008D2F90E00E94BD066C01892BB9F5DD3276
:100B1000B9F50F5F1F4FD5011196DC91C1E0580167
:100B2000F1E0AF1AB10843E050E060E770E0C501C2
:100B30000E94C606892B69F5680182E0C80ED11CA7
:100B400045E050E06BE670E0C6010E94C606892BC6
:100B500021F4680197E0C90ED11CE114F10419F0E9
:100B6000D701CD92DC9260E070E080E89FEFC11188
:100B7000FFC060E070E080E89FE7FAC05801BBCF9B
:100B8000DB3229F485010E5F1F4FF501D181C0E0F2
:100B9000C6CF43E050E068E670E0C5010E94C6069B
:100BA000892BE9F0F80110E000E020E030E0A90135
:100BB0005F01B0ED8B2E8D0E89E08815C8F19C2E5B
:100BC000689491F88C2F8870C2FF16C0811102C002
:100BD0000F5F1F4F3196D501DC91C92DE9CFE1148C
:100BE000F10429F00E5F1F4FF7011183008360E0CD
:100BF00070E080EC9FE7BCC0882311F00150110920
:100C0000A5E0B0E00E941B089B01AC01220F331F3E
:100C1000441F551F280D311D411D511D283999E9CB
:100C20003907490799E15907A8F2C6609C2ED2CF2F
:100C3000AEEF8A1206C0C3FD3CC09C2E689493F8A8
:100C4000C9CFDF7DD534A9F580818D3239F4C061FB
:100C5000DF011296818162E070E006C0DF018B3215
:100C6000C1F3119661E070E080535D01A61AB70AE6
:100C70008A30F8F4E0E8CE16ECE0DE065CF4B6016B
:100C8000660F771F660F771FC60ED71ECC0CDD1CB4
:100C9000C80ED11C5D01FFEFAF1ABF0A8C918053C3
:100CA0008A30A8F1C4FF03C0D194C194D1080C0DBF
:100CB0001D1DC1FF09C0E114F10431F081E0A81A43
:100CC000B108D701AD92BC92CA01B9010E94E306F6
:100CD000C370C33009F490584B015C0120E030E050
:100CE000A9010E94DE06882309F440C0CFE9D0E0C4
:100CF00017FF05C0119501951109C7E8D0E06E01F5
:100D0000B8E1CB1AD10880E2E82EF12C0FC0D50152
:100D1000B1CFFE0125913591459154910E191F09CE
:100D2000C501B4010E9444074B015C01D501C40117
:100D30000E151F0574F72497F594E794CC16DD067D
:100D4000A9F78A2F880F8B2F881F8F3F49F020E04B
:100D500030E0A901C501B4010E94DE06811106C080
:100D600082E290E09093D5018093D401C501B40153
:100D7000CDB7DEB7ECE00C94480891110C94B107A4
:100D8000803219F089508550C8F70895FB01DC01C5
:100D90004150504088F08D9181341CF08B350CF41B
:100DA000805E659161341CF06B350CF4605E861BCF
:100DB000611171F3990B0895881BFCCF0E942007E5
:100DC00008F481E00895E89409C097FB3EF49095FB
:100DD0008095709561957F4F8F4F9F4F9923A9F014
:100DE000F92F96E9BB279395F695879577956795A3
:100DF000B795F111F8CFFAF4BB0F11F460FF1BC0E7
:100E00006F5F7F4F8F4F9F4F16C0882311F096E979
:100E100011C0772321F09EE8872F762F05C0662327
:100E200071F096E8862F70E060E02AF09A95660FE0
:100E3000771F881FDAF7880F9695879597F9089599
:100E4000990F0008550FAA0BE0E8FEEF16161706DB
:100E5000E807F907C0F012161306E407F50798F043
:100E6000621B730B840B950B39F40A2661F0232B5C
:100E7000242B252B21F408950A2609F4A140A695D8
:100E80008FEF811D811D08950E9457070C94CB0799
:100E90000E94BD0738F00E94C40720F0952311F08E
:100EA0000C94B4070C94BA0711240C94FF070E9409
:100EB000DC0770F3959FC1F3950F50E0551F629FBB
:100EC000F001729FBB27F00DB11D639FAA27F00DA3
:100ED000B11DAA1F649F6627B00DA11D661F829FCA
:100EE0002227B00DA11D621F739FB00DA11D621FAF
:100EF000839FA00D611D221F749F3327A00D611DCC
:100F0000231F849F600D211D822F762F6A2F1124AD
:100F10009F5750409AF0F1F088234AF0EE0FFF1FE0
:100F2000BB1F661F771F881F91505040A9F79E3F37
:100F3000510580F00C94B4070C94FF075F3FE4F375
:100F4000983ED4F3869577956795B795F795E7958D
:100F50009F5FC1F7FE2B880F911D9695879597F996
:100F6000089599278827089597F99F6780E870E08A
:100F700060E008959FEF80EC089500240A9416160F
:100F8000170618060906089500240A941216130677
:100F9000140605060895092E0394000C11F4882305
:100FA00052F0BB0F40F4BF2B11F460FF04C06F5F21
:100FB0007F4F8F4F9F4F089557FD9058440F551FF7
:100FC00059F05F3F71F04795880F97FB991F61F0CB
:100FD0009F3F79F087950895121613061406551F42
:100FE000F2CF4695F1DF08C0161617061806991FAE
:100FF000F1CF86957105610508940895E894BB27A3
:1010000066277727CB0197F90895F999FECF92BD0E
:1010100081BDF89A992780B50895262FF999FECFBA
:101020001FBA92BD81BD20BD0FB6F894FA9AF99A05
:101030000FBE019608950E945D08A59F900DB49F74
:10104000900DA49F800D911D112408952F923F9221
:101050004F925F926F927F928F929F92AF92BF92C8
:10106000CF92DF92EF92FF920F931F93CF93DF9374
:10107000CDB7DEB7CA1BDB0B0FB6F894DEBF0FBED1
:10108000CDBF09942A88398848885F846E847D841E
:101090008C849B84AA84B984C884DF80EE80FD8020
:1010A0000C811B81AA81B981CE0FD11D0FB6F89496
:1010B000DEBF0FBECDBFED010895A29FB001B39F6B
:1010C000C001A39F700D811D1124911DB29F700D51
:1010D000811D1124911D08955058BB27AA270E94F5
:1010E00084080C94CB070E94BD0738F00E94C40707
:1010F00020F039F49F3F19F426F40C94BA070EF44B
:10110000E095E7FB0C94B407E92F0E94DC0758F345
:10111000BA17620773078407950720F079F4A6F5DC
:101120000C94FE070EF4E0950B2EBA2FA02D0B01A8
:10113000B90190010C01CA01A0011124FF27591B1C
:1011400099F0593F50F4503E68F11A16F040A22F22
:10115000232F342F4427585FF3CF46953795279593
:10116000A795F0405395C9F77EF41F16BA0B620B92
:10117000730B840BBAF09150A1F0FF0FBB1F661FD9
:10118000771F881FC2F70EC0BA0F621F731F841F1C
:1011900048F4879577956795B795F7959E3F08F042
:1011A000B0CF9395880F08F09927EE0F9795879504
:1011B00008950E94E40788F09F5798F0B92F992767
:1011C000B751B0F0E1F0660F771F881F991F1AF032
:1011D000BA95C9F714C0B13091F00E94FE07B1E092
:1011E00008950C94FE07672F782F8827B85F39F091
:1011F000B93FCCF3869577956795B395D9F73EF4CB
:1012000090958095709561957F4F8F4F9F4F089572
:101210000E94200708F48FEF08950E942007880B92
:10122000990B0895A1E21A2EAA1BBB1BFD010DC04C
:10123000AA1FBB1FEE1FFF1FA217B307E407F50786
:1012400020F0A21BB30BE40BF50B661F771F881F62
:10125000991F1A9469F760957095809590959B01F8
:10126000AC01BD01CF010895EE0FFF1F0590F49171
:10127000E02D09940F931F93CF93DF938230910554
:1012800010F482E090E0E091D801F091D90130E0D3
:1012900020E0B0E0A0E0309799F42115310509F481
:1012A0004AC0281B390B24303105D8F58A819B812F
:1012B0006115710589F1FB0193838283FE0111C0E1
:1012C000408151810281138148175907E0F0481786
:1012D000590799F4109761F012960C931297139690
:1012E0001C933296CF01DF91CF911F910F910895FA
:1012F0000093D8011093D901F4CF2115310551F095
:101300004217530738F0A901DB019A01BD01DF0143
:10131000F801C1CFEF01F9CF9093D9018093D801A3
:10132000CDCFFE01E20FF31F81939193225031093B
:1013300039832883D7CF2091D6013091D701232B31
:1013400041F420910201309103013093D7012093A1
:10135000D60120910001309101012115310541F4A0
:101360002DB73EB74091040150910501241B350B68
:10137000E091D601F091D701E217F307A0F42E1BFC
:101380003F0B2817390778F0AC014E5F5F4F2417E9
:10139000350748F04E0F5F1F5093D7014093D60199
:1013A000819391939FCFF0E0E0E09CCFCF93DF93C8
:1013B0000097E9F0FC01329713821282A091D801C4
:1013C000B091D901ED0130E020E01097A1F4208127
:1013D0003181820F931F2091D6013091D7012817B8
:1013E000390709F061C0F093D701E093D601DF918E
:1013F000CF910895EA01CE17DF07E8F54A815B81B6
:101400009E0141155105B1F7E901FB83EA8349913A
:101410005991C40FD51FEC17FD0761F480819181AC
:101420000296840F951FE9019983888382819381B5
:101430009B838A83F0E0E0E012968D919C91139754
:101440000097B9F52D913C911197CD010296820F2D
:10145000931F2091D6013091D7012817390739F60B
:10146000309751F51092D9011092D801B093D7015D
:10147000A093D601BCCFD383C28340815181840F16
:10148000951FC817D90761F44E5F5F4F8881998116
:10149000480F591F518340838A819B8193838283A4
:1014A0002115310509F0B0CFF093D901E093D801AF
:1014B0009ECFFD01DC01C0CF13821282D7CFB0E0F6
:1014C000A0E0E5E6FAE00C9428088C01009751F4BE
:1014D000CB010E943A098C01C801CDB7DEB7E0E12B
:1014E0000C944408FC01E60FF71F9C0122503109BF
:1014F000E217F30708F49DC0D901CD91DC91119753
:10150000C617D70798F0C530D10530F3CE01049740
:101510008617970708F3C61BD70B2297C193D19361
:101520006D937C93CF010E94D609D6CF5B01AC1A94
:10153000BD0A4C018C0E9D1EA091D801B091D9011D
:10154000512C412CF12CE12C109731F58091D601D2
:101550009091D7018815990509F05CC04616570689
:1015600008F058C08091000190910101009741F46A
:101570008DB79EB74091040150910501841B950BD6
:10158000E817F90708F055C0F093D701E093D601AA
:10159000F90171836083A0CF8D919C911197129670
:1015A0006C90129713967C901397A815B90559F56E
:1015B0006C0142E0C40ED11CCA14DB0420F1AC0162
:1015C0004A195B09DA011296159780F062827382DC
:1015D00051834083D9016D937C93E114F10471F040
:1015E000D7011396FC93EE93129776CF22968C0F29
:1015F0009D1FF90191838083F301EFCFF093D9010F
:10160000E093D80169CF4816590608F42C017D01F2
:10161000D3019ACFCB010E943A097C01009749F08F
:10162000AE01B8010E941C0BC8010E94D6098701B7
:1016300053CF10E000E050CFFB01DC0102C001906D
:101640000D9241505040D8F70895FB01DC01019004
:0C1650000D920020E1F70895F894FFCF00
:10165C000000DA018000000000007C019C00C90041
:10166C00C9013A01D8002C016E616E00696E6600EA
:08167C006F7666000D0A000004
:107E0000112484B714BE81FFF0D085E080938100F7
:107E100082E08093C00088E18093C10086E0809377
:107E2000C20080E18093C4008EE0C9D0259A86E02C
:107E300020E33CEF91E0309385002093840096BBD3
:107E4000B09BFECF1D9AA8958150A9F7CC24DD24C4
:107E500088248394B5E0AB2EA1E19A2EF3E0BF2EE7
:107E6000A2D0813461F49FD0082FAFD0023811F036
:107E7000013811F484E001C083E08DD089C08234E0
:107E800011F484E103C0853419F485E0A6D080C0E4
:107E9000853579F488D0E82EFF2485D0082F10E0AE
:107EA000102F00270E291F29000F111F8ED06801E7
:107EB0006FC0863521F484E090D080E0DECF843638
:107EC00009F040C070D06FD0082F6DD080E0C81688
:107ED00080E7D80618F4F601B7BEE895C0E0D1E017
:107EE00062D089930C17E1F7F0E0CF16F0E7DF06D8
:107EF00018F0F601B7BEE89568D007B600FCFDCFD4
:107F0000A601A0E0B1E02C9130E011968C91119780
:107F100090E0982F8827822B932B1296FA010C0160
:107F200087BEE89511244E5F5F4FF1E0A038BF0790
:107F300051F7F601A7BEE89507B600FCFDCF97BE46
:107F4000E89526C08437B1F42ED02DD0F82E2BD052
:107F50003CD0F601EF2C8F010F5F1F4F84911BD097
:107F6000EA94F801C1F70894C11CD11CFA94CF0C13
:107F7000D11C0EC0853739F428D08EE10CD085E9AC
:107F80000AD08FE07ACF813511F488E018D01DD067
:107F900080E101D065CF982F8091C00085FFFCCF94
:107FA0009093C60008958091C00087FFFCCF809118
:107FB000C00084FD01C0A8958091C6000895E0E648
:107FC000F0E098E1908380830895EDDF803219F02E
:107FD00088E0F5DFFFCF84E1DECF1F93182FE3DFCA
:107FE0001150E9F7F2DF1F91089580E0E8DFEE27F6
:047FF000FF270994CA
:027FFE00040479
:0400000300007E007B
:00000001FF
