:100000000C945D000C9485000C9485000C942003E6
:100010000C9420030C9420030C9485000C94850010
:100020000C9485000C9485000C9485000C9485003C
:100030000C9485000C9485000C9485000C9485002C
:100040000C94D6020C9485000C94A4020C947E02AD
:100050000C9485000C9485000C9485000C9485000C
:100060000C9485000C9485000000000024002700FB
:100070002A0000000000250028002B0004040404CE
:100080000404040402020202020203030303030342
:10009000010204081020408001020408102001021F
:1000A00004081020000000080002010000030407FB
:1000B00000000000000000002A0311241FBECFEF43
:1000C000D8E0DEBFCDBF23E0A2E2B1E001C01D92C7
:1000D000AA36B207E1F711E0A0E0B1E0E4EBF0E10D
:1000E00002C005900D92A232B107D9F710E0CDE51C
:1000F000D0E004C02197FE010E945208CC35D10700
:10010000C9F70E9465030C9458080C9400004F92A4
:100110005F926F927F928F929F92AF92BF92CF9297
:10012000DF92EF92FF9280E480937C0080917A00CE
:10013000806480937A0080917A0086FDFCCF809164
:100140007800E091790040906203509063036090E2
:10015000640370906503FE2FE82FA4E6B0E0A301CE
:1001600092010E94F9069B01AC01DF010E944A083E
:100170006B017C0184E6882E912CA12CB12CA50169
:100180009401241935094609570960916603709155
:10019000670380916803909169030E94C7066C0D04
:1001A0007D1D8E1D9F1D6E5C7F4F8F4F9F4FA50144
:1001B00094010E942B0820936603309367034093B9
:1001C000680350936903CA01B9016E5C7F4F8F4F7A
:1001D0009F4FA50194010E942B08C901FF90EF9049
:1001E000DF90CF90BF90AF909F908F907F906F9057
:1001F0005F904F900895AF92BF92CF92DF92EF92AF
:10020000FF920F931F93CF93DF936C017B018B01C0
:10021000040F151FEB015E01AE18BF08C017D10710
:1002200059F06991D601ED91FC910190F081E02D9A
:10023000C6010995892B79F7C501DF91CF911F91EF
:100240000F91FF90EF90DF90CF90BF90AF90089507
:10025000FC01538D448D252F30E0842F90E0821BCC
:10026000930B541710F0CF96089501970895FC0151
:10027000918D828D981761F0A28DAE0FBF2FB11DA9
:100280005D968C91928D9F5F9F73928F90E0089501
:100290008FEF9FEF0895FC01918D828D981731F0BB
:1002A000828DE80FF11D858D90E008958FEF9FEF0F
:1002B0000895FC01918D228D892F90E0805C9F4FE5
:1002C000821B91098F739927089585EC92E00E9413
:1002D000590121E0892B09F420E0822F089580E064
:1002E00090E0892B29F00E94650181110C94000097
:1002F0000895FC01A48DA80FB92FB11DA35ABF4FBB
:100300002C91848D90E001968F739927848FA68914
:10031000B7892C93A089B1898C91837080648C9368
:10032000938D848D981306C00288F389E02D808117
:100330008F7D80830895EF92FF920F931F93CF9349
:10034000DF93EC0181E0888F9B8D8C8D98131AC010
:10035000E889F989808185FF15C09FB7F894EE89F7
:10036000FF896083E889F989808183708064808354
:100370009FBF81E090E0DF91CF911F910F91FF909F
:10038000EF900895F62E0B8D10E00F5F1F4F0F7347
:100390001127E02E8C8D8E110CC00FB607FCFACF02
:1003A000E889F989808185FFF5CFCE010E94790126
:1003B000F1CFEB8DEC0FFD2FF11DE35AFF4FF082D3
:1003C0009FB7F8940B8FEA89FB8980818062CFCF39
:1003D000CF93DF93EC01888D8823B9F0AA89BB897C
:1003E000E889F9898C9185FD03C0808186FD0DC067
:1003F0000FB607FCF7CF8C9185FFF2CF808185FF88
:10040000EDCFCE010E947901E9CFDF91CF91089520
:100410003FB7F8948091290190912A01A0912B0176
:10042000B0912C0126B5A89B05C02F3F19F001966D
:10043000A11DB11D3FBFBA2FA92F982F8827BC013E
:10044000CD01620F711D811D911D42E0660F771F66
:10045000881F991F4A95D1F70895FC01019000204B
:10046000E9F73197AF01481B590BBC0185EC92E0CD
:100470000C94FB008F929F92AF92BF920F931F93A9
:10048000CF93DF93CDB7DEB7A1970FB6F894DEBF59
:100490000FBECDBF19A2423008F44AE08E010F5DB5
:1004A0001F4F842E912CB12CA12CA50194010E94E8
:1004B000D706E62FB901CA01EA30F4F4E05DD801AD
:1004C000EE938D01232B242B252B79F790E080E0F0
:1004D000109719F0CD010E942D02A1960FB6F89445
:1004E000DEBF0FBECDBFDF91CF911F910F91BF90A7
:1004F000AF909F908F900895E95CE1CF1F920F928B
:100500000FB60F9211242F933F934F935F936F93E6
:100510007F938F939F93AF93BF93EF93FF9385EC5C
:1005200092E00E947901FF91EF91BF91AF919F916D
:100530008F917F916F915F914F913F912F910F908C
:100540000FBE0F901F9018951F920F920FB60F922B
:1005500011242F938F939F93EF93FF93E091D502F4
:10056000F091D6028081E091DB02F091DC0282FD05
:100570001BC090818091DE028F5F8F732091DF021C
:10058000821741F0E091DE02F0E0EB53FD4F958FD2
:100590008093DE02FF91EF919F918F912F910F90A9
:1005A0000FBE0F901F9018958081F4CF1F920F926D
:1005B0000FB60F9211242F933F938F939F93AF9376
:1005C000BF938091250190912601A0912701B091C0
:1005D00028013091240123E0230F2D3758F501968F
:1005E000A11DB11D20932401809325019093260124
:1005F000A0932701B09328018091290190912A01AD
:10060000A0912B01B0912C010196A11DB11D8093E9
:10061000290190932A01A0932B01B0932C01BF9143
:10062000AF919F918F913F912F910F900FBE0F909F
:100630001F90189526E8230F0296A11DB11DD2CF59
:100640001F920F920FB60F9211240F900FBE0F90B2
:100650001F901895E5ECF2E01382128288EE93E089
:10066000A0E0B0E084839583A683B78384E091E023
:100670009183808385EC90E09587848784EC90E07B
:100680009787868780EC90E0918B808B81EC90E05F
:10069000938B828B82EC90E0958B848B86EC90E040
:1006A000978B868B118E128E138E148EE2E6F3E0FA
:1006B00084E190E0A0E0B0E080839183A283B383E3
:1006C00014821582168217820895789484B5826008
:1006D00084BD84B5816084BD85B5826085BD85B5E6
:1006E000816085BD80916E00816080936E00109264
:1006F00081008091810082608093810080918100DF
:10070000816080938100809180008160809380006F
:100710008091B10084608093B1008091B0008160CD
:100720008093B00080917A00846080937A008091F9
:100730007A00826080937A0080917A008160809351
:100740007A0080917A00806880937A001092C100CC
:10075000E091D502F091D60282E08083E091D1024F
:10076000F091D2021082E091D302F091D4028FEC8A
:1007700080831092DD02E091D902F091DA0286E0E6
:100780008083E091D702F091D802808180618083DC
:10079000E091D702F091D802808188608083E09157
:1007A000D702F091D802808180688083E091D702DF
:1007B000F091D80280818F7D808348E950E0FA0172
:1007C000649184E890E0FC012491222399F030E0C8
:1007D000220F331FF901E859FF4FA591B491F90198
:1007E000EE58FF4F259134912FB7F8943C91632B2D
:1007F0006C932FBFECEAF0E02491FA014491FC01E4
:1008000094919923D9F0222359F0233009F455C04B
:1008100008F048C0213009F456C0223009F457C00E
:10082000E92FF0E0EE0FFF1FEE58FF4FA591B491B6
:100830008FB7F8949C91492B4C938FBF4EE4342E84
:10084000CAE0D0E00E9487002197E1F701E311E0C0
:10085000E8010E9487007C0130927C000E9408021F
:100860004B015C0132E0432E512C612C712C0E9413
:100870000802681979098A099B09683E7340810555
:100880009105A8F3F8EE8F0EF3E09F1EA11CB11C9A
:100890004A9445284628472839F1412C512C3201E9
:1008A0004394E5CF2730B1F02830D1F0243009F05F
:1008B000B7CF809180008F7D03C0809180008F77BB
:1008C00080938000ADCF84B58F7784BDA9CF84B5E8
:1008D0008F7DFBCF8091B0008F778093B000A0CF49
:1008E0008091B0008F7DF9CF80917A0080648093F1
:1008F0007A0080917A0086FDFCCF8091780080900C
:100900007900912C982C8824092C000CAA08BB088B
:10091000882A88E190E00E94BF0680932D0189E13A
:1009200090E00E94BF0680932E018AE190E00E9431
:10093000BF0680932F018BE190E00E94BF06809359
:10094000300160912D0170912E0180912F019091C5
:100950003001A50194010E942B08CA01B9010E942F
:10096000A20520E030E04AE754E40E9480074B01F2
:100970005C01B701FF0C880B990B0E94A2059B013B
:10098000AC01C501B4010E94010620E030E040E85E
:100990005AE30E9401066993799389939993F2E04F
:1009A000C13CDF0709F055CF60E070E0CB01F801F2
:1009B00021913191419151918F010E941407C017EB
:1009C000D107A9F720E030E048EC52E40E9480070C
:1009D0004B015C012B013C01AC019B010E942608EC
:1009E0008823A9F082E191E00E942D028EE191E03E
:1009F0000E942D0280E090E0892B09F421CF0E9413
:100A00006501882309F41CCF0E94000019CF7501ED
:100A10006401E894F7F82FEF3FEF4FE75FE7C70176
:100A2000B6010E94260881110DC02FEF3FEF4FE75E
:100A30005FE7C701B6010E949B0518161CF486E10A
:100A400091E0D2CF2FEF3FEF4FE75FE4C501B40154
:100A50000E94210818161CF48AE191E0C5CF2FEFFF
:100A60003FEF4FE75FECC501B4010E949B0587FD96
:100A7000F3CF20E030E0A901C501B4010E949B053D
:100A800087FF0BC06DE285EC92E00E949B01240180
:100A9000350177FA709477F870942AE037ED43EADD
:100AA0005BE3C301B2010E9414072B013C010E94C9
:100AB000F2074B015C010E94A0059B01AC01C30140
:100AC000B2010E9413072B013C014AE0C501B401A9
:100AD0000E943A026EE285EC92E00E949B0120E0C7
:100AE00030E040E251E4C301B2010E9401062B0153
:100AF0003C010E94F2074B01B12CA12C4AE0C50138
:100B0000B4010E943A02C501B4010E94A0059B01F4
:100B1000AC01C301B2010E94130720E030E040E2C3
:100B200051E40E9401060E94F20790E080E04AE052
:100B30000E943A025BCF0E94DD0508F481E008952F
:100B4000E89409C097FB3EF4909580957095619567
:100B50007F4F8F4F9F4F9923A9F0F92F96E9BB271D
:100B60009395F695879577956795B795F111F8CF99
:100B7000FAF4BB0F11F460FF1BC06F5F7F4F8F4F04
:100B80009F4F16C0882311F096E911C0772321F0FA
:100B90009EE8872F762F05C0662371F096E8862F92
:100BA00070E060E02AF09A95660F771F881FDAF7E9
:100BB000880F9695879597F90895990F0008550F16
:100BC000AA0BE0E8FEEF16161706E807F907C0F0D3
:100BD00012161306E407F50798F0621B730B840BDB
:100BE000950B39F40A2661F0232B242B252B21F4B5
:100BF00008950A2609F4A140A6958FEF811D811D55
:100C000008950E9414060C9485060E94770638F019
:100C10000E947E0620F0952311F00C946E060C9431
:100C2000740611240C94B9060E94960670F3959FE1
:100C3000C1F3950F50E0551F629FF001729FBB27D3
:100C4000F00DB11D639FAA27F00DB11DAA1F649F6F
:100C50006627B00DA11D661F829F2227B00DA11D22
:100C6000621F739FB00DA11D621F839FA00D611DA8
:100C7000221F749F3327A00D611D231F849F600DC9
:100C8000211D822F762F6A2F11249F5750409AF0F2
:100C9000F1F088234AF0EE0FFF1FBB1F661F771F7E
:100CA000881F91505040A9F79E3F510580F00C9449
:100CB0006E060C94B9065F3FE4F3983ED4F3869534
:100CC00077956795B795F795E7959F5FC1F7FE2BE9
:100CD000880F911D9695879597F9089597F99F67C5
:100CE00080E870E060E008959FEF80EC08950024B4
:100CF0000A941616170618060906089500240A9481
:100D000012161306140605060895092E0394000C06
:100D100011F4882352F0BB0F40F4BF2B11F460FF95
:100D200004C06F5F7F4F8F4F9F4F089557FD9058BE
:100D3000440F551F59F05F3F71F04795880F97FB9F
:100D4000991F61F09F3F79F0879508951216130659
:100D50001406551FF2CF4695F1DF08C01616170688
:100D60001806991FF1CF86957105610508940895BD
:100D7000E894BB2766277727CB0197F90895F9995F
:100D8000FECF92BD81BDF89A992780B50895DB0109
:100D90008F939F930E94F906BF91AF91A29F800D00
:100DA000911DA39F900DB29F900D11240895A1E273
:100DB0001A2EAA1BBB1BFD010DC0AA1FBB1FEE1FD5
:100DC000FF1FA217B307E407F50720F0A21BB30B20
:100DD000E40BF50B661F771F881F991F1A9469F79C
:100DE00060957095809590959B01AC01BD01CF01F8
:100DF00008950E940407A59F900DB49F900DA49F95
:100E0000800D911D11240895A29FB001B39FC001D0
:100E1000A39F700D811D1124911DB29F700D811D26
:100E20001124911D08955058BB27AA270E942B0713
:100E30000C9485060E94770638F00E947E0620F00A
:100E400039F49F3F19F426F40C9474060EF4E095DF
:100E5000E7FB0C946E06E92F0E94960658F3BA172A
:100E6000620773078407950720F079F4A6F50C94C0
:100E7000B8060EF4E0950B2EBA2FA02D0B01B90188
:100E800090010C01CA01A0011124FF27591B99F000
:100E9000593F50F4503E68F11A16F040A22F232F0C
:100EA000342F4427585FF3CF469537952795A7955C
:100EB000F0405395C9F77EF41F16BA0B620B730B03
:100EC000840BBAF09150A1F0FF0FBB1F661F771F74
:100ED000881FC2F70EC0BA0F621F731F841F48F429
:100EE000879577956795B795F7959E3F08F0B0CFB2
:100EF0009395880F08F09927EE0F97958795089599
:100F00000E9494070C9485060E947E0658F00E9469
:100F1000770640F029F45F3F29F00C946E065111DA
:100F20000C94B9060C9474060E94960668F39923F3
:100F3000B1F3552391F3951B550BBB27AA276217D5
:100F40007307840738F09F5F5F4F220F331F441FE2
:100F5000AA1FA9F335D00E2E3AF0E0E832D0915016
:100F60005040E695001CCAF72BD0FE2F29D0660F03
:100F7000771F881FBB1F261737074807AB07B0E846
:100F800009F0BB0B802DBF01FF2793585F4F3AF04C
:100F90009E3F510578F00C946E060C94B9065F3FA5
:100FA000E4F3983ED4F3869577956795B795F795D2
:100FB0009F5FC9F7880F911D9695879597F90895BA
:100FC000E1E0660F771F881FBB1F62177307840756
:100FD000BA0720F0621B730B840BBA0BEE1F88F765
:100FE000E09508950E949E0688F09F5798F0B92FCB
:100FF0009927B751B0F0E1F0660F771F881F991F4E
:101000001AF0BA95C9F714C0B13091F00E94B80631
:10101000B1E008950C94B806672F782F8827B85F41
:1010200039F0B93FCCF3869577956795B395D9F7A5
:101030003EF490958095709561957F4F8F4F9F4FAF
:1010400008950E94DD0508F48FEF08950E94DD05E4
:10105000880B990B0895052E97FB1EF400940E94AF
:10106000420857FD07D00E94D70607FC03D04EF474
:101070000C94420850954095309521953F4F4F4F25
:101080005F4F089590958095709561957F4F8F4F34
:101090009F4F0895B7FF0C94F9060E94F906821B32
:1010A000930B0895EE0FFF1F0590F491E02D099426
:0410B000F894FFCFE2
:1010B400000000009B01FB002801E80159013701F1
:1010C4004B016E616E00696E66006F7666000D0AF4
:0210D40000001A
:00000001FF
