:100000000C940E010C9467110C9440110C948E11F9
:100010000C948E110C948E110C9436010C943601B4
:100020000C9436010C9436010C9436010C94360174
:100030000C9436010C9436010C9436010C94360164
:100040000C94F6100C9436010C94C4100C949E1071
:100050000C9436010C9436010C9436010C94360144
:100060000C9436010C9436014E414E494E49545978
:10007000494E46CDCCCC3D0AD7233C17B7D1387773
:10008000CC2B329595E6241FB14F0A000020410089
:1000900000C84200401C4620BCBE4CCA1B0E5AAED3
:1000A000C59D7400407A10F35A00A0724E180900E2
:1000B00010A5D4E80000E87648170000E40B5402CD
:1000C0000000CA9A3B000000E1F505000080969808
:1000D00000000040420F000000A086010000001058
:1000E0002700000000E8030000000064000000009A
:1000F000000A00000000000100000000002C76D87B
:1001000088DC674F0823DFC1DFAE59E1B1B796E560
:10011000E3E453C63AE651997696E8E6C28426EBC4
:10012000898C9B62ED407C6FFCEFBC9C9F40F2BAD7
:10013000A56FA5F490055A2AF75C936B6CF9676D6F
:10014000C11BFCE0E40D47FEF520E6B500D0ED90C4
:100150002E0300943577050080841E080000204E91
:100160000A000000C80C333333330F986E1283112A
:1001700041EF8D2114893BE65516CFFEE6DB18D101
:10018000844B381BF77C1D901DA4BBE424203284D3
:10019000725E228100C9F124ECA1E53D27005EBC1E
:1001A000E2613FDD83C29C7E20A3FD1F41009D23B1
:1001B000BE46DB65F88C11AF32CA57E97400000007
:1001C00000240027002A00000000080002010000AF
:1001D00003040700000000000000000000000025EC
:1001E0000028002B00000000002300260029000446
:1001F00004040404040404020202020202030303CE
:1002000003030301020408102040800102040810C7
:1002100020010204081020000612591411241FBEE8
:10022000CFEFD8E0DEBFCDBF23E0A0EEB1E001C04C
:100230001D92A83FB207E1F711E0A0E0B1E0EAECBF
:10024000FAE302C005900D92A03EB107D9F711E084
:10025000CDE0D1E004C02197FE010E94601BCC30AC
:10026000D107C9F70E94DD120C94581D0C940000B0
:100270000895AF92BF92CF92DF92EF92FF920F93C9
:100280001F93CF93DF936C017B018B01040F151F2C
:10029000EB015E01AE18BF08C017D10759F0699194
:1002A000D601ED91FC910190F081E02DC6010995F8
:1002B000892B79F7C501DF91CF911F910F91FF90A5
:1002C000EF90DF90CF90BF90AF900895FC01538DD9
:1002D000448D252F30E0842F90E0821B930B541720
:1002E00010F0CF96089501970895FC01918D828DAD
:1002F000981761F0A28DAE0FBF2FB11D5D968C9146
:10030000928D9F5F9F73928F90E008958FEF9FEF84
:100310000895FC01918D828D981731F0828DE80F40
:10032000F11D858D90E008958FEF9FEF0895FC01FA
:10033000918D228D892F90E0805C9F4F821B9109C7
:100340008F739927089584EE92E00E94970121E02F
:10035000892B09F420E0822F089580E090E0892B1A
:1003600029F00E94A30181110C9400000895FC0162
:10037000A48DA80FB92FB11DA35ABF4F2C91848D06
:1003800090E001968F739927848FA689B7892C9363
:10039000A089B1898C91837080648C93938D848DB6
:1003A000981306C00288F389E02D80818F7D8083B9
:1003B0000895EF92FF920F931F93CF93DF93EC0179
:1003C00081E0888F9B8D8C8D98131AC0E889F989FC
:1003D000808185FF15C09FB7F894EE89FF896083FF
:1003E000E889F98980818370806480839FBF81E080
:1003F00090E0DF91CF911F910F91FF90EF900895C2
:10040000F62E0B8D10E00F5F1F4F0F731127E02E9C
:100410008C8D8E110CC00FB607FCFACFE889F989D4
:10042000808185FFF5CFCE010E94B701F1CFEB8D22
:10043000EC0FFD2FF11DE35AFF4FF0829FB7F894A8
:100440000B8FEA89FB8980818062CFCFCF93DF93C6
:10045000EC01888D8823B9F0AA89BB89E889F989DC
:100460008C9185FD03C0808186FD0DC00FB607FC11
:10047000F7CF8C9185FFF2CF808185FFEDCFCE0144
:100480000E94B701E9CFDF91CF91089590E0FC0180
:10049000E953FE4F2491FC01ED5FFD4F3491FC01C7
:1004A000E151FE4FE491EE23C9F0222339F02330CD
:1004B00001F1A8F4213019F1223029F1F0E0EE0F1A
:1004C000FF1FE552FE4FA591B4918FB7F894EC91C0
:1004D000611126C030953E233C938FBF089527308D
:1004E000A9F02830C9F0243049F7809180008F7D31
:1004F00003C0809180008F7780938000DFCF84B528
:100500008F7784BDDBCF84B58F7DFBCF8091B0002A
:100510008F778093B000D2CF8091B0008F7DF9CFDC
:100520003E2BDACFCF93DF9390E0FC01ED5FFD4FE0
:10053000249181519E4FFC0184918823C9F090E061
:10054000880F991FFC01E354FE4FA591B491FC0163
:10055000E552FE4FC591D49161110DC09FB7F8943B
:100560008C91209582238C938881282328839FBF98
:10057000DF91CF910895623051F49FB7F8943C9188
:10058000822F809583238C93E8812E2BEFCF8FB71A
:10059000F894EC912E2B2C938FBFEACF0F931F93DF
:1005A000CF93DF93EC01162F042F1B821A8288EE63
:1005B00093E0A0E0B0E08C839D83AE83BF838EE0A8
:1005C00091E0998388831F8A1E8A198E188E1B8E4C
:1005D0001A8E1D8E1C8E6E8D6E7F6D7F6E8F669552
:1005E000617081E06827842F0E94460261E0802FBD
:1005F0000E949202802F90E0FC01ED5FFD4FE4919C
:10060000E88BFC01E151FE4FE491F0E0EE0FFF1F9B
:10061000E552FE4F859194919A8B898B60E0812FF2
:100620000E9492028E8D81FD04C061E0812F0E94A4
:1006300046021C87812F90E0FC01ED5FFD4FE491A5
:10064000ED87FC01E151FE4FE491F0E0EE0FFF1F5A
:10065000EB51FE4F859194919F878E87DF91CF91CB
:100660001F910F9108953FB7F89480918602909161
:100670008702A0918802B091890226B5A89B05C087
:100680002F3F19F00196A11DB11D3FBFBA2FA92F11
:10069000982F8827BC01CD01620F711D811D911D0E
:1006A00042E0660F771F881F991F4A95D1F708957A
:1006B0008F929F92AF92BF92CF92DF92EF92FF9272
:1006C0006B017C010E9433034B015C01C114D10416
:1006D000E104F104B9F00E943303681979098A0929
:1006E0009B09683E73408105910580F321E0C21AA1
:1006F000D108E108F10888EE880E83E0981EA11C5D
:10070000B11CE4CFFF90EF90DF90CF90BF90AF90FF
:100710009F908F9008950895DC0180E0615090F0E3
:100720009D919827E92FEF70F0E0E356FE4F24915A
:10073000E92FE295EF70F0E0E355FE4FE491822F50
:100740008E27ECCF0895DC012C911196ED91FC9150
:10075000F8948181822B81839281322F309593236B
:10076000928387E090E00197F1F781818323818371
:1007700083E290E00197F1F790817894EFECF0E05C
:100780003197F1F7922381E009F480E00895FC01AC
:1007900090810180F281E02D292F209560FF14C007
:1007A000F8948281822382838181892B8183A3E2D1
:1007B000B0E01197F1F78281982B9283789487EDBE
:1007C00090E00197F1F70895F89482818223828363
:1007D0008181892B8183AFEFB0E01197F1F782819E
:1007E000982B928378948FE090E0EBCFDF92EF929A
:1007F000FF920F931F93CF93DF93EC01D62EE42E3D
:1008000008E010E0FF24F39461E08D2D8F2109F4BE
:1008100060E0CE010E94C703FF0C01501109A1F74F
:10082000E11010C0F894E981FA8191818881809566
:1008300089238183E981FA81928188818095892346
:1008400082837894DF91CF911F910F91FF90EF9069
:10085000DF900895EF92FF920F931F93CF93DF9352
:100860008C017B0140E065E50E94F603E70188E02A
:10087000E80EF11C699140E0C8010E94F603CE1514
:10088000DF05C1F7DF91CF911F910F91FF90EF909E
:100890000895FC0190810180F281E02DF89481811E
:1008A000292F20958223818378943DE743E050E00F
:1008B000315029F1DA011197F1F780818923C1F3D1
:1008C000F8948281822382838181892B8183789429
:1008D000ABE7B7E01197F1F7F89481818223818328
:1008E000A3E1B1E01197F1F78081982381E009F04D
:1008F00080E07894E3E6F6E03197F1F7089580E040
:1009000008956F927F928F929F92AF92BF92CF92F3
:10091000DF92EF92FF920F931F93CF93DF938C019F
:10092000EB018091C6039091C7030E94490488237C
:1009300009F43FC0B8018091C6039091C7030E949B
:100940002A0440E06EEB8091C6039091C7030E9499
:10095000F6037E016E0189E0C80ED11C8E01A090C5
:10096000C603B090C70388E0882E912C712C6624B2
:100970006394C5010E94A30381117628660CE1E00F
:100980008E1A9108B1F7F80171928F01CE16DF0629
:1009900031F78091C6039091C7030E9449048130CA
:1009A00041F4F70181917F01811105C0E017F10742
:1009B000C1F790E008C068E0CE010E948C0391E08E
:1009C00028852813F6CF892FDF91CF911F910F91A2
:1009D000FF90EF90DF90CF90BF90AF909F908F905F
:1009E0007F906F900895CF92DF92EF92FF92809167
:1009F000C6039091C7030E94490440E06CEC8091CB
:100A0000C6039091C7030E94F6034091BD0364E4BE
:100A10008091C6039091C7030E94F6038091C103A1
:100A2000882389F1E091C0038091C203882381F17A
:100A30008091BD0381112CC08FB7F894C090E00263
:100A4000D090E102E090E202F090E3028FBF80914B
:100A5000C6039091C7030E94A3038130A1F02FB772
:100A6000F8948091E0029091E102A091E202B091AD
:100A7000E3022FBF8C199D09AE09BF098E3E92403B
:100A8000A105B10520F3FF90EF90DF90CF9008957E
:100A9000E9508EEE92E0E33038F4F0E0EE0FFF1F05
:100AA000E45EFE4F808191816C01990FEE08FF0892
:100AB0008091BE03882329F060E08091BF030E94EB
:100AC0004602C701B6010E9458038091BE038823E5
:100AD000D1F261E08091BF03FF90EF90DF90CF9063
:100AE0000C9446022091DE023091DF02281739076C
:100AF00071F49091DC028091DD02981741F0E09151
:100B0000DC02F0E0EB5BFD4F808190E008958FEF19
:100B10009FEF08950895EF92FF920F931F93CF9345
:100B2000DF93DC015C96ED90FC905D97E114F1049D
:100B300079F481E090E013969C938E93129790E065
:100B400080E0DF91CF911F910F91FF90EF9008957A
:100B50005196ED91FC91529750968C915097982F09
:100B600090950FB75E962C915E97122F127021FD13
:100B70006095F8942081112319F1282B2083E70137
:100B80002197F1F728E0462F50E0308160FF1AC02E
:100B9000382B3083E7012197F1F7BA0175956795F6
:100BA000215089F7112381F08081892380830FBF31
:100BB0005C968D919C910197F1F781E090E0C1CF17
:100BC0002923DCCF3923E5CF9081892BEFCF2091EA
:100BD000DE023091DF022817390771F48091DD02BF
:100BE0002091DC0290E0805C9F4F821B910960E4C1
:100BF00070E00E94111B089590E080E0089520911C
:100C0000DE023091DF0228173907B9F49091DC0237
:100C10008091DD02981789F0E091DC02F0E0EB5B57
:100C2000FD4F80812091DC0230E02F5F3F4F2F731A
:100C300033272093DC0290E008958FEF9FEF089513
:100C4000E091DE02F091DF02E817F90769F4A38969
:100C5000B4899C918589809589238C931092DF02B9
:100C60001092DE0281E0089580E00895CF93DF9333
:100C7000EC011B8E1A8E198E188E1F8A1E8A8DE922
:100C800091E09D8F8C8F8C858631E0F52DEB30E0E7
:100C90003F8B2E8B2BE931E0398F288F2CE231E00E
:100CA0003B8F2A8F90916800883008F44EC021E075
:100CB0008E3008F420E081E001C0880F2A95EAF721
:100CC000892B809368009C852DE630E0983050F0A9
:100CD0002BE630E09E3030F02CE630E0963110F01C
:100CE00030E020E03C8B2B8B292F30E0983078F5DA
:100CF00081E001C0880F9A95EAF78D8B8C8D9D8DD0
:100D00000197F1F78A8D9B8D892BE1F08091DE02AE
:100D10009091DF02C817D907A9F0009711F00E943F
:100D200020068E8D8E7F8E8F1092DD021092DC0257
:100D3000D093DF02C093DE02EB89FC8980819D891C
:100D4000892B8083DF91CF91089584E0B9CF9E30C5
:100D500040F42850310981E001C0880F2A95EAF754
:100D6000CCCF2E503109F7CF90E080E008954F921C
:100D70005F926F927F928F929F92AF92BF92CF922B
:100D8000DF92EF92FF928E50806480937C0080917E
:100D90007A00806480937A0080917A0086FDFCCF8F
:100DA00080917800E09179004090EA035090EB0345
:100DB0006090EC037090ED03FE2FE82FA4E6B0E006
:100DC000A30192010E94E1199B01AC01DF010E9485
:100DD000441B6B017C0184E6882E912CA12CB12C44
:100DE000A501940124193509460957096091EE03BC
:100DF0007091EF038091F0039091F1030E94AF197D
:100E00006C0D7D1D8E1D9F1D6E5C7F4F8F4F9F4F04
:100E1000A50194010E94251B2093EE033093EF035C
:100E20004093F0035093F103CA01B9016E5C7F4F08
:100E30008F4F9F4FA50194010E94251BC901FF9070
:100E4000EF90DF90CF90BF90AF909F908F907F906A
:100E50006F905F904F900895AF92BF92CF92DF92C4
:100E6000EF92FF920F931F93CF93DF93EB015C01FF
:100E700010E000E0C12CD12C7601F50121913191D7
:100E8000419151915F01C701B6010E94331A6B0174
:100E90007C010F5F1F4FC017D10779F7BE01DD0F2F
:100EA000880B990B0E948A189B01AC01C701B601FF
:100EB0000E949F1ADF91CF911F910F91FF90EF90A9
:100EC000DF90CF90BF90AF900895BF92CF92DF9206
:100ED000EF92FF920F931F93CF93DF93EC01B62E07
:100EE000C72E8D85811105C0CE010E944904811154
:100EF0000EC01B861D861C8680E0DF91CF911F915E
:100F00000F91FF90EF90DF90CF90BF90089540E059
:100F100060EFCE010E94F60301E0E12CD12C11E03C
:100F2000CE010E94A303F82ECE010E94A30391E0FC
:100F3000F91218C0813099F51134D8F2DB86D1103E
:100F400002C081E08D878B81882399F22396EB2D57
:100F5000FC2DCF01089629912193E817F907D9F7BD
:100F600081E0CBCFEE2DF0E0F8120FC08B85181783
:100F7000A0F4DE01AE0FBF1F13968C91802379F48D
:100F8000F12C193008F41C87D12EEC0FFD1F838142
:100F9000902F9095892383830AC08113F1CFFE019E
:100FA000EE0DF11D8381802B8383FF24F3946F2D3D
:100FB000CE010E94C7031F5F000F11F4E39401E00C
:100FC00087E08E1508F0ACCFB7CFCF93DF93CDB7C6
:100FD000DEB761970FB6F894DEBF0FBECDBFE091CC
:100FE000C603F091C70313861586148612861186F0
:100FF000108617821682158214821382BE01665FE4
:101000007F4F8091C6039091C7030E9465078111AD
:101010000DC060E070E08EEF92EC61960FB6F89430
:10102000DEBF0FBECDBFDF91CF91089567E0CE0147
:101030000A960E948C0399898913EBCFBE016F5FDA
:101040007F4FCE010A960E948104882311F36A81A2
:1010500070E0762F6627770F770F770F298148E0AA
:10106000249F90011124262B372B8A858031E1F4AF
:1010700068856623C9F070E08F81AB01481B510978
:10108000CA019695982F8827979587950E94111BDE
:10109000CB018097B90153E0660F771F5A95E1F7AE
:1010A00060789C01260F371F213854EE35070CF469
:1010B000B0CFB901330F880B990B0E948A1820E03A
:1010C00030E040E05CE30E94E918A7CF0F931F9344
:1010D000CF93DF93CDB7DEB761970FB6F894DEBF3D
:1010E0000FBECDBFE091C603F091C70313861586EE
:1010F0001486128611861086178216821582148233
:1011000013821092C4031092C50311E0BE01665F02
:101110007F4F8091C6039091C7030E946507882383
:1011200009F475C067E0CE010A960E948C03998984
:101130008913ECCF8091C4038F5F8093C4038A85A9
:10114000883231F008F049C0803111F08232F1F676
:101150008091C5038F5F8093C5038091BD0381118A
:1011600028C08091C6039091C7030E944904BE0124
:10117000665F7F4F8091C6039091C7030E942A0447
:1011800040E064EB8091C6039091C7030E94F60390
:101190008091C6039091C7030E94A303082F8091FA
:1011A000C6039091C7030E944904011102C0109325
:1011B000BD038A858031E1F0BE016F5F7F4FCE01B4
:1011C0000A960E948104882331F08D818F33D9F0F3
:1011D00058F48F31D1F080E00EC08B3309F4B8CFD2
:1011E000823409F093CFB4CF8F3521F08F3799F740
:1011F0008CE001C08BE09091C003981708F086CF77
:101200008093C00383CF8AE0F6CF89E0F4CF619664
:101210000FB6F894DEBF0FBECDBFDF91CF911F9107
:101220000F910895CF92DF92EF92FF920F931F9349
:10123000CF93DF93EB017B0124E0E20EF11C8B01E5
:101240006C01C61AD70AC601800F911F0E94A71908
:10125000F80181938F01EE15FF05A9F7CE01DF910B
:10126000CF911F910F91FF90EF90DF90CF90089555
:101270009F92AF92BF92CF92DF92EF92FF920F9325
:101280001F93CF93DF935C01CAE0D0E0C5010E94B9
:10129000B70664EF71E080E090E00E945803219768
:1012A000A9F7CAE8D2E02EE4922EC5010E94B70643
:1012B0008C0190927C0062E070E080E090E00E94FF
:1012C000580380917A00806480937A0080917A003C
:1012D00086FDFCCF80917800C0907900D12CDC2C69
:1012E000CC240D2C000CEE08FF08C82A88E190E001
:1012F0000E94A7198093E00189E190E00E94A7195C
:101300008093E1018AE190E00E94A7198093E201B5
:101310008BE190E00E94A7198093E3016091E001C6
:101320007091E1018091E2019091E301A7019601A2
:101330000E94251BCA01B9010E948A1820E030E0F2
:101340004AE754E40E949F1A6B017C01B801110F17
:10135000880B990B0E948A189B01AC01C701B6014A
:101360000E94E91820E030E040E85AE30E94E918C2
:10137000699379938993999364E670E080E090E0B3
:101380000E94580382E0CA3DD80709F08ECFDF9152
:10139000CF911F910F91FF90EF90DF90CF90BF9072
:1013A000AF909F900895FB0101900020E9F73197DD
:1013B000AF01461B570BDC01ED91FC910280F381DC
:1013C000E02D09940F931F93CF93DF93EC010E94BC
:1013D000D3098C0164E371E0CE010E94D309800F30
:1013E000911FDF91CF911F910F9108950F931F933C
:1013F000CF93DF93EC01FB014481558160817181C2
:10140000E881F9810280F381E02D09958C0164E384
:1014100071E0CE010E94D309800F911FDF91CF911F
:101420001F910F910895FC0180819181009711F027
:101430000C949F1460E070E0CB0108950F931F930C
:10144000CF93DF938C01EB01FC01808191810097A8
:10145000E1F06881798161157105A9F042815381BC
:101460002C813D814217530770F00E94511D8C81E1
:101470009D81F801958384831D821C82DF91CF9129
:101480001F910F9108950E94021C88819981F80193
:10149000918380838A819B81938382838C819D81C8
:1014A00095838483198218821B821A82E5CFCF9399
:1014B000DF93EC0188819981009711F00E94021C52
:1014C000198218821D821C821B821A82DF91CF91A1
:1014D0000895FC0180819181009711F00C94021C09
:1014E00008950F931F93CF93DF93EC018881998127
:1014F000009759F02A813B812617370730F081E0A9
:10150000DF91CF911F910F9108958B016F5F7F4FF6
:101510000E948B1C009759F0998388831B830A8350
:101520002C813D81232B59F7FC011082E8CF80E00C
:10153000E7CFEF92FF920F931F93CF93DF93611545
:10154000710541F480E0DF91CF911F910F91FF90E1
:10155000EF90089541155105B1F07B01EC010C812C
:101560001D81040F151FB8010E94710A882351F3D1
:10157000288139818C819D81B701820F931F0E9440
:10158000511D1D830C8381E0DECFCF93DF93EC01EF
:10159000FB0101900020E9F73197AF01461B570B83
:1015A0000E94990A811103C0CE010E94570ACE0100
:1015B000DF91CF910895CF93DF93EC01FB0144813C
:1015C0005581608171810E94990A811103C0CE0109
:1015D0000E94570ACE01DF91CF910895EF92FF92BA
:1015E0000F931F93CF93DF93EC017B018A01BA0124
:1015F0000E94710A81110BC0CE010E94570ACE01D0
:10160000DF91CF911F910F91FF90EF9008951D836F
:101610000C83B701888199810E94511DF0CFFB0195
:1016200001900020E9F73197AF01461B570B0C944E
:10163000EE0AEF92FF920F931F93CF93DF93CDB7F4
:10164000DEB7A1970FB6F894DEBF0FBECDBF7C0109
:10165000CB01BA01F7011182108213821282158226
:1016600014828E010F5F1F4F22E044E00E9481141C
:10167000009789F0BC01C7010E940F0BA1960FB61D
:10168000F894DEBF0FBECDBFDF91CF911F910F91B8
:10169000FF90EF900895C7010E94570AEFCFCF93B4
:1016A000DF93EC01FB018617970749F06081718198
:1016B0006115710541F0448155810E94EE0ACE0109
:1016C000DF91CF9108950E94570AF9CFFC01118252
:1016D000108213821282158214820C944F0BFC012B
:1016E000118210821382128215821482FB010190F2
:1016F0000020E9F73197AF01461B570B0C94EE0A17
:10170000AF92BF92CF92DF92EF92FF920F931F930F
:10171000CF93DF938C017B01DB011496ED91FC915B
:101720002FEF3FEFD12CC12C90E080E070E060E023
:10173000E817F90724F14617570724F1EC01219621
:101740008E179F0760F4D701AD90BC90A114B1042F
:1017500031F0D501A80FB91FAC91AC3219F0E817E0
:10176000F90759F46F5F7F4F6901BFEFCB1ADB0AAE
:101770009E01E817F90709F09C01CE01D9CF461761
:101780005707D4F559012C153D0510F05601690194
:1017900066E371E0C8010E946F0BF701C481D58137
:1017A000AC16BD06D0F4CC16DD0608F4E601D70170
:1017B0006D917C91FB01EC0FFD1FD08010826A0DB2
:1017C0007B1DC80161157105A1F00E940F0BF70187
:1017D00080819181C80FD91FD882C801DF91CF9134
:1017E0001F910F91FF90EF90DF90CF90BF90AF903F
:1017F00008950E94570AEBCF66E371E0C8010E948A
:101800006F0BEBCF8F929F92AF92BF92CF92DF92EE
:10181000EF92FF920F931F93CF93DF93CDB7DEB775
:10182000CC58D1090FB6F894DEBF0FBECDBFE898F3
:101830008BE893E0909301018093000161E472E0F2
:101840008091E8039091E9030E9412096DE372E030
:101850008091E6039091E7030E94120969E372E028
:101860008091E4039091E5030E94120965E372E020
:101870008091E2039091E3030E94120966E371E014
:10188000CE0189579F4F0E946F0B67E371E084EE92
:1018900092E00E94E20961E087E00E9446020E9415
:1018A000660868EE73E080E090E00E9458038FB70E
:1018B000F8948090E0029090E102A090E202B09053
:1018C000E3028FBF8FB7F894C090E002D090E1029E
:1018D000E090E202F090E3028FBF0E94F3040E94C6
:1018E000E507AB01BC01CE0101960E94190BBE01B8
:1018F0006F5F7F4F83E993E00E941E0ACE0101963D
:101900000E94690A8C149D04AE04BF04D9F20AE84F
:1019100012E05AEDE52E52E0F52E0E94F3040E94EB
:10192000E507F80161937193819391938F0162E3CD
:1019300070E080E090E00E945803E016F10669F73D
:1019400040E050E068EC71E4CE0101960E94190B72
:10195000BE016F5F7F4F83E993E00E941E0ACE01B4
:1019600001960E94690A60E087E00E94460264E6F0
:1019700070E080E090E00E9458036EE471E084EE35
:1019800092E00E94E20961E089E00E94460243E0A1
:1019900062E0CE0101960E94CE02CE0101960E9425
:1019A000360664E670E080E090E00E94580363E74A
:1019B00071E0CE0101960E94E20968EE73E080E0DA
:1019C00090E00E94580310E000E066E371E08FE9C8
:1019D00093E00E940F0B69E771E0CE0180960E94B0
:1019E0006F0B63E973E0CE0180960E94DB0ABC01B5
:1019F000CE0101960E94F609CE0180960E94690AE6
:101A000068015801AA0CBB1CAA0CBB1CF12CE12CD0
:101A100086010E0D1F1DCE0101960E94E7051816C6
:101A200019060CF093C0CE0101960E94FF05982E76
:101A300088A319A241E050E0BE01605E7F4F8FE9AC
:101A400093E00E94990AFDE09F12E5CF8091A303E5
:101A50009091A403892B31F0E0919F03F091A003B2
:101A6000309721F41092E401E4EEF1E08081082E39
:101A7000000C990BC0970A9770F666E371E08BEA49
:101A800093E00E940F0B66E371E085EA93E00E9409
:101A90000F0B6FE973E0CE0180960E94660B50E059
:101AA00040E0BE01605E7F4FCE01CF960E94800B6A
:101AB000BE01615C7F4F8BEA93E00E941E0ACE015B
:101AC000CF960E94690ACE0180960E94690A6FE94A
:101AD00073E0CE0180960E94660B41E050E0BE01AB
:101AE000605E7F4FCE01CF960E94800BBE01615C8D
:101AF0007F4F85EA93E00E941E0ACE01CF960E9496
:101B0000690ACE0180960E94690A85EA93E00E94E4
:101B1000130A8701000F111F000F111F0A0D1B1D53
:101B2000F801E35FFD4F60837183828393838BEAC7
:101B300093E00E94130AF801EB51FE4F608371831A
:101B4000828393838FEFE81AF80A62CF68EE73E01E
:101B500080E090E00E9458030A3011050CF435CF64
:101B60006AE070E085EE91E00E942C07AB01BC01B9
:101B7000CE0180960E94190BBE01605E7F4F8BEAFA
:101B800093E00E941E0ACE0180960E94690A6AE0D4
:101B900070E08DE092E00E942C07AB01BC01CE0109
:101BA00080960E94190BBE01605E7F4F85EA93E02C
:101BB0000E941E0ACE0180960E94690A60E089E0B8
:101BC0000E94460262E082E00E94920262E083E0AC
:101BD0000E94920260E082E00E94460260E083E0A0
:101BE0000E94460264E670E080E090E00E945803A4
:101BF000CE0101960E9420066CE771E084EE92E02F
:101C00000E94E20961E08BE00E94460262E370E01C
:101C100080E090E00E94580345E064E0CE018096A9
:101C20000E94CE02CE0180960E94360610E000E0AF
:101C300066E371E089E993E00E940F0B69E771E0C8
:101C4000CE01CF960E946F0B63E973E0CE01CF9671
:101C50000E94DB0ABC01CE0180960E94F609CE01EB
:101C6000CF960E94690ACE0180960E94E705181659
:101C70001906F4F5CE0180960E94FF05F82E8FAF6D
:101C800021961FAE219741E050E0BE01615C7F4F7D
:101C900089E993E00E94990AEDE0FE12E4CF809179
:101CA0009D0390919E03892B31F0E0919903F0916F
:101CB0009A03309721F41092E401E4EEF1E0808180
:101CC000082E000C990BC0970A9768F689E993E0F3
:101CD0000E94130AF801EE0FFF1FEE0FFF1FEB51DA
:101CE000FE4F60837183828393830F5F1F4FBBCF4F
:101CF00068EE73E080E090E00E9458030A3011051E
:101D00000CF496CF6AE070E085EE91E00E942C071B
:101D1000AB01BC01CE01CF960E94190BBE01615CE4
:101D20007F4F89E993E00E941E0ACE01CF960E9460
:101D3000690A60E08BE00E94460264E670E080E0A1
:101D400090E00E945803CE0180960E94200664E62F
:101D500070E080E090E00E94580368E971E084EE52
:101D600092E00E94E20961E088E00E9446028EE073
:101D700090E00E94380964EF71E080E090E00E94FA
:101D800058038EE090E00E94380964EF71E080E033
:101D900090E00E9458038EE090E00E94380964E1D0
:101DA00070E08AE892E00E942C0720914102309175
:101DB000420240914302509144020E94E91820914E
:101DC0003D0230913E0240913F02509140020E94FC
:101DD000331AAB01BC01CE01CF960E94190BBE0194
:101DE000615C7F4F8DE893E00E941E0ACE01CF9682
:101DF0000E94690A60E088E00E94460264E670E0A2
:101E000080E090E00E94580366EA71E084EE92E080
:101E10000E94E20961E08CE00E94460282E190E0CB
:101E20000E94380964E170E08AE892E00E942C0781
:101E30002091390230913A0240913B0250913C028C
:101E40000E94E91820913502309136024091370204
:101E5000509138020E94331AAB01BC01CE01CF96DB
:101E60000E94190BBE01615C7F4F81E893E00E94E4
:101E70001E0ACE01CF960E94690A60E08CE00E94A3
:101E8000460264E670E080E090E00E94580365EB53
:101E900071E084EE92E00E94E2098FE090E00E94FF
:101EA000380964E170E08AE892E00E942C079B0107
:101EB000AC0166E676E686E890E40E94321A9B0161
:101EC000AC0160E070E080E89FE30E94321A20E0FD
:101ED00030E048EC52E40E94E918AB01BC01CE01AD
:101EE0008F579F4F0E94190B61E873E0CE018B580A
:101EF0009F4F0E94660B6DE873E0CE0181599F4FA2
:101F00000E94660B63E973E0CE0187599F4F0E94E0
:101F1000660B69E973E0CE018D599F4F0E94660BF5
:101F200065EA73E0CE01835A9F4F0E94660B6BEA0D
:101F300073E0CE01895A9F4F0E94660B66E371E001
:101F4000CE0185589F4F0E946F0BBE01695A7F4F8B
:101F5000CE01CF960E94660B6AE771E0CE01CF9664
:101F60000E94C50ABE01635A7F4F0E94DB0A6AE7DE
:101F700071E00E94C50ABE016D597F4F0E94DB0AC5
:101F80006AE771E00E94C50ABE0167597F4F0E944F
:101F9000DB0A6AE771E00E94C50ABE0161597F4F02
:101FA0000E94DB0A6AE771E00E94C50ABE016B5815
:101FB0007F4F0E94DB0ABC01CE0185589F4F0E94D3
:101FC0004F0BCE01CF960E94690A8091DA02909160
:101FD000DB0263961FAE1EAE639765961FAE1EAE04
:101FE000659767961FAE1EAE67974AE0BE01615CBB
:101FF0007F4F0E94AC14BE01615C7F4FCE018F5AAF
:102000009F4F0E940F0B6EEC71E0CE01CF960E94A5
:102010006F0BBE016F5A7F4FCE01CF960E94DB0A35
:102020006AE771E00E94C50ABE0165587F4F0E94B1
:10203000DB0A6AE771E00E94C50ABE016F577F4F55
:102040000E94DB0ABC01CE0189579F4F0E944F0BB3
:10205000CE01CF960E94690ACE018F5A9F4F0E94EF
:10206000690ACE0185589F4F0E94690ACE01895A9C
:102070009F4F0E94690ACE01835A9F4F0E94690AAE
:10208000CE018D599F4F0E94690ACE0187599F4FFB
:102090000E94690ACE0181599F4F0E94690ACE01B0
:1020A0008B589F4F0E94690ACE018F579F4F0E9405
:1020B000690A61E080E10E94460264EF71E080E01D
:1020C00090E00E94580360E080E10E944602BE0159
:1020D00069577F4F84EE92E00E94F60964E670E053
:1020E00080E090E00E94580383B78E7F83BF0EE0AC
:1020F00011E019A308A3CE0180960E9420061A833E
:102100000983CE0101960E942006CE0189579F4F78
:102110000E94690AC457DF4F0FB6F894DEBF0FBEA6
:10212000CDBFDF91CF911F910F91FF90EF90DF9086
:10213000CF90BF90AF909F908F9008951F920F9275
:102140000FB60F9211242F933F934F935F936F938A
:102150007F938F939F93AF93BF93EF93FF9384EEFF
:1021600092E00E94B701FF91EF91BF91AF919F91D3
:102170008F917F916F915F914F913F912F910F9030
:102180000FBE0F901F9018951F920F920FB60F92CF
:1021900011242F938F939F93EF93FF93E091F40279
:1021A000F091F5028081E091FA02F091FB0282FD4C
:1021B0001BC090818091FD028F5F8F732091FE0282
:1021C000821741F0E091FD02F0E0EC51FD4F958F58
:1021D0008093FD02FF91EF919F918F912F910F902E
:1021E0000FBE0F901F9018958081F4CF1F920F9211
:1021F0000FB60F9211242F933F938F939F93AF931A
:10220000BF938091E0029091E102A091E202B0912F
:10221000E3023091850223E0230F2D3758F5019614
:10222000A11DB11D209385028093E0029093E102ED
:10223000A093E202B093E30280918602909187021C
:10224000A0918802B09189020196A11DB11D8093D1
:10225000860290938702A0938802B0938902BF916F
:10226000AF919F918F913F912F910F900FBE0F9043
:102270001F90189526E8230F0296A11DB11DD2CFFD
:102280001F920F920FB60F9211242F933F934F93EB
:102290005F936F937F938F939F93AF93BF93EF93CE
:1022A000FF93E0910201F09103010995FF91EF91F5
:1022B000BF91AF919F918F917F916F915F914F915E
:1022C0003F912F910F900FBE0F901F9018951F9266
:1022D0000F920FB60F9211242F933F934F935F935A
:1022E0006F937F938F939F93AF93BF93EF93FF93DE
:1022F000E0910001F09101010995FF91EF91BF91EB
:10230000AF919F918F917F916F915F914F913F918D
:102310002F910F900FBE0F901F9018951F920F9244
:102320000FB60F9211242F933F934F935F936F93A8
:102330007F938F939F93AF93BF93EF93FF93E0911E
:10234000DE02F091DF02309749F0A685B7858585DA
:10235000968D91FF14C09C918923A1F4FF91EF9178
:10236000BF91AF919F918F917F916F915F914F91AD
:102370003F912F910F900FBE0F901F9018959C9139
:10238000892361F7A389B4899C91858980958923E4
:102390008C93868997890197F1F7608D718DA68559
:1023A000B785558538E020E0CB010197F1F7822F02
:1023B00090E095958795282F4C91452309F020684A
:1023C000315091F7868D81FD20958091DD0290E05E
:1023D00001968F7399273091DC02381799F0A091FC
:1023E000DD02B0E0AB5BBD4F2C938093DD02828DAC
:1023F000938D0197F1F7A389B4898C919589892BE5
:102400008C93ACCF868D8160868FF1CFE4EEF2E0C5
:102410001382128288EE93E0A0E0B0E0848395837B
:10242000A683B78386E291E09183808385EC90E078
:102430009587848784EC90E09787868780EC90E08E
:10244000918B808B81EC90E0938B828B82EC90E07F
:10245000958B848B86EC90E0978B868B118E128EF9
:10246000138E148EEAEEF3E084E190E0A0E0B0E099
:1024700080839183A283B38314821582168217828C
:1024800088E090E09093E9038093E8038CE090E08B
:102490009093E7038093E60380E190E09093E50357
:1024A0008093E40384E190E09093E3038093E2035C
:1024B00060E086E00E949202E9E0F2E0E491A4ED9F
:1024C000B3E0EC93E5EFF1E0E491F0E0EE0FFF1FF5
:1024D000EB51FE4F8591949112969C938E93119798
:1024E0001B961C921B971D961C921D971C961C9266
:1024F0001C971A961C921A9719961C92199718965F
:102500001C92189717961C92179716961C9216975E
:1025100015961C92159714961C92149713961C925C
:102520001397EDEBF3E0168A158A1182B287A18723
:1025300017821086108289E0838381E084838583FB
:10254000868366E371E087EB93E00E946F0B66E39E
:1025500071E081EB93E00E946F0B66E371E08BEA20
:1025600093E00E946F0B66E371E085EA93E00E94BE
:102570006F0B66E371E08FE993E00E946F0B66E3F7
:1025800071E089E993E00E946F0B66E371E083E9F3
:1025900093E00E946F0B66E371E08DE893E00E9488
:1025A0006F0B66E371E087E893E00E946F0B66E3D0
:1025B00071E081E893E00C946F0BCF93DF93CDB77C
:1025C000DEB72C970FB6F894DEBF0FBECDBF789460
:1025D00084B5826084BD84B5816084BD85B5826028
:1025E00085BD85B5816085BD80916E0081608093D9
:1025F0006E00109281008091810082608093810042
:102600008091810081608093810080918000816051
:10261000809380008091B10084608093B1008091AC
:10262000B00081608093B00080917A0084608093D4
:102630007A0080917A00826080937A0080917A009B
:10264000816080937A0080917A00806880937A001C
:102650001092C100E091F402F091F50282E08083D3
:10266000E091F002F091F1021082E091F202F0911B
:10267000F3028FEC80831092FC02E091F802F0915B
:10268000F90286E08083E091F602F091F702808102
:1026900080618083E091F602F091F702808188608A
:1026A0008083E091F602F091F70280818068808358
:1026B000E091F602F091F70280818F7D808390E0B7
:1026C00080E00E94A7198093DA0281E090E00E94E6
:1026D000A7198093DB0261E089E00E94920261E029
:1026E00087E00E94920261E088E00E94920261E02D
:1026F0008BE00E94920261E08AE00E94920261E017
:102700008CE00E94920261E080E10E94920266E306
:1027100071E0CE0107960E946F0B8FE090E00E945F
:10272000380964E170E08AE892E00E942C072DEC01
:102730003CEC4CE450E40E94831866ED71E01816FE
:1027400014F46BED71E0CE0107960E940F0B61E06F
:1027500087E00E94460268EE73E080E090E00E940D
:1027600058030E9466080E94F3040E94E507AB012B
:10277000BC01CE0101960E94190BBE016F5F7F4F15
:1027800083E993E00E941E0ACE0101960E94690A25
:1027900083E993E00E94130A20E030E04EEF52EC10
:1027A0000E94831860E018160CF476C087E00E943F
:1027B0004602BE01695F7F4FCE0101960E94660B03
:1027C00067ED71E0CE0101960E94C50ABC01CE0101
:1027D00007960E944F0BCE0101960E94690ABE0126
:1027E000695F7F4F81EB93E00E941E0ACE0107963E
:1027F0000E94690A61E080E10E94460264EF71E094
:1028000080E090E00E94580360E080E10E94460270
:1028100061EB73E084EE92E00E94F60968EB7BE0E6
:1028200080E090E00E94580302E01CE080E0E82E87
:1028300080E0F82E68EE73E080E090E00E9458039C
:1028400062E082E00E94920264EF71E080E090E03A
:102850000E94580383B7816083BF109301010093E6
:102860000001809169008C7F80936900E89A64EF91
:1028700071E080E090E00E94580383B7817F84601C
:1028800083BF8895E114F104A9F20E94A301882373
:1028900089F20E940000CECF87E00E944602BE016E
:1028A000695F7F4FCE0101960E94660B6CED71E06F
:1028B00089CF81E893E00E94690A87E893E00E944B
:1028C000690A8DE893E00E94690A83E993E00E9417
:1028D000690A89E993E00E94690A8FE993E00E94FE
:1028E000690A85EA93E00E94690A8BEA93E00E94F4
:1028F000690A81EB93E00E94690A87EB93E00C94EC
:10290000690AEF920F931F93CF93DF93E80134E0AE
:1029100047FD34E1042E000C550B57FF03C05195C1
:1029200041955109E32E022F242FAE010E94D114AC
:10293000CE01DF91CF911F910F91EF9008956627FF
:1029400077270C94301691110C945818803219F096
:1029500089508550C8F70895BB274A3031F4992330
:1029600022F4BDE2909581959F4F0C94B814BB273B
:10297000FB015527AA27880F991FAA1FA41710F03B
:10298000A41B83955051B9F7A05DAA3308F0A95D47
:10299000A193009779F7B111B1931192CB010C94E7
:1029A0007318A9E0B0E0E7EDF4E10C94F2196A01C4
:1029B000F22EB02E102FFBE3AF2EA01608F41BE36F
:1029C0001F5F012F27E0AE014F5F5F4F0E9480170E
:1029D000BC018981982F9970913009F43FC09BE226
:1029E000E1FC04C09E2D9170E0FC3AC05E2D507158
:1029F000E82FE87083FF46C084E0911101C083E0B6
:102A0000EF2DE81B8F1508F0E0E0D6018E2F20E2B5
:102A1000552351F1992329F0D6019C93C6010196C3
:102A20006C0196012D5F3F4FE2FE24C08EE4D6017B
:102A30008C9391E411969C93119712968C93D901E3
:102A40008E2F90E281111BC0E20FF32FF11D108237
:102A50008EEF9FEF2996ECE00C940E1A9DE2C6CF04
:102A600090E2C4CF2D9381508111FCCFCE0ED11CAA
:102A7000E0E0D0CF8EE6D6018C9391E6DBCF9D933C
:102A80008150E0CF482F447082FF3DC084E0911117
:102A900001C083E08F1510F4EF2DE81BD6018E2FB7
:102AA00020E2552309F1992329F0D6019C93C60110
:102AB00001966C0196012D5F3F4FE2FE1BC089E439
:102AC000D6018C938EE411968C93119786E412961E
:102AD0008C93D9018E2F90E2882309F4B5CF9D9372
:102AE0008150FACF2D9381508111FCCFCE0ED11C95
:102AF000E0E0D9CF89E6D6018C938EE611968C93CF
:102B0000119786E6E4CF9B0177FF02C030E020E01A
:102B1000A1E0B0E0911102C0B0E0A0E0F90131966F
:102B2000AE0FBF1F8B2C912CBB2009F461C0540148
:102B3000EFEFAE1ABE0AAA0DBB1DFA161B0619F05E
:102B400014F04F2D4A1B511188C0E3FC59C0760187
:102B5000A42FB0E2A1114FC0C40ED11C992309F4D7
:102B60005BC040E0D6011196F60190836D015523BC
:102B700009F448C0012F060F9A81582F507184FF25
:102B800003C0913309F4015010160CF047C009300E
:102B900008F008E0EEE2FE2E5B01A01AB108850104
:102BA0009194819491082F3F320729F4D601FC9229
:102BB000F60131966F016217730794F1021713073C
:102BC0007CF5DB01A21BB30BAA24A394B12CAC0EA1
:102BD000BD1EAA0DBB1D11968C9121503109D60145
:102BE000119628153905F4F0F60180836D01DBCFCD
:102BF000B12CA12CA0CFF701B1937F01A150AACF96
:102C00009111B0CFD601942F50E302C05D93915043
:102C10009111FCCFC40ED11C40E0ACCF01E0BACF83
:102C200080E3DBCF6217730731F4963388F4953372
:102C300011F4552369F0F6018083FD01842F90E2A1
:102C4000811108C0A40FB11D1C9290E080E002CF5A
:102C500081E3F1CF91938150F3CF911183CF8ACF4C
:102C6000B0E0A0E0E6E3F6E10C94F2195C017B0130
:102C70006115710519F0DB018D939C9385010F5F40
:102C80001F4FF501D0818D2F90E00E94A3146C019D
:102C9000892BB9F5DD32B9F50F5F1F4FD5011196BC
:102CA000DC91C1E05801F1E0AF1AB10843E050E017
:102CB00060E770E0C5010E945B18892B69F5680127
:102CC00082E0C80ED11C45E050E06BE670E0C60122
:102CD0000E945B18892B21F4680197E0C90ED11C72
:102CE000E114F10419F0D701CD92DC9260E070E0BC
:102CF00080E89FEFC111FFC060E070E080E89FE7CF
:102D0000FAC05801BBCFDB3229F485010E5F1F4F9B
:102D1000F501D181C0E0C6CF43E050E068E670E045
:102D2000C5010E945B18892BE9F0F80110E000E072
:102D300020E030E0A9015F01B0ED8B2E8D0E89E01F
:102D40008815C8F19C2E689491F88C2F8870C2FF6A
:102D500016C0811102C00F5F1F4F3196D501DC9163
:102D6000C92DE9CFE114F10429F00E5F1F4FF701DF
:102D70001183008360E070E080EC9FE7BCC0882393
:102D800011F001501109A5E0B0E00E94E1199B018A
:102D9000AC01220F331F441F551F280D311D411D4B
:102DA000511D283999E93907490799E15907A8F2CE
:102DB000C6609C2ED2CFAEEF8A1206C0C3FD3CC0C7
:102DC0009C2E689493F8C9CFDF7DD534A9F5808116
:102DD0008D3239F4C061DF011296818162E070E0CA
:102DE00006C0DF018B32C1F3119661E070E08053C1
:102DF0005D01A61AB70A8A30F8F4E0E8CE16ECE0D6
:102E0000DE065CF4B601660F771F660F771FC60EED
:102E1000D71ECC0CDD1CC80ED11C5D01FFEFAF1A14
:102E2000BF0A8C9180538A30A8F1C4FF03C0D194AB
:102E3000C194D1080C0D1D1DC1FF09C0E114F1049E
:102E400031F081E0A81AB108D701AD92BC92CA0155
:102E5000B9010E948818C370C33009F490584B011F
:102E60005C0120E030E0A9010E948318882309F466
:102E700040C0CFE9D0E017FF05C0119501951109B9
:102E8000C7E8D0E06E01B8E1CB1AD10880E2E82EA5
:102E9000F12C0FC0D501B1CFFE012591359145919F
:102EA00054910E191F09C501B4010E94E9184B0184
:102EB0005C01D501C4010E151F0574F72497F59424
:102EC000E794CC16DD06A9F78A2F880F8B2F881F71
:102ED0008F3F49F020E030E0A901C501B4010E9414
:102EE0008318811106C082E290E09093F3038093EF
:102EF000F203C501B401CDB7DEB7ECE00C940E1AB5
:102F0000283008F027E03327DA01990F311D87FDBB
:102F1000916000966105710539F432602E5F3D9332
:102F200030E32A95E1F708959F3F30F0803871052E
:102F3000610509F03C5F3C5F3D93913008F080688B
:102F4000911DDF93CF931F930F93FF92EF92192F51
:102F5000987F9695E92F96959695E90FFF27E35070
:102F6000FF4F99273327EE24FF24A701E70105909F
:102F70000894079428F4360FE71EF81E491F511DC8
:102F8000660F771F881F991F0694A1F70590079475
:102F900028F4E70EF81E491F561FC11D770F881F22
:102FA000991F661F0694A1F70590079428F4F80E60
:102FB000491F561FC71FD11D880F991F661F771FF6
:102FC0000694A1F70590079420F4490F561FC71FD8
:102FD000D81F990F661F771F881F0694A9F7849141
:102FE0001095177041F0D695C79557954795F7946A
:102FF000E7941A95C1F7E3EAF0E06894159015910B
:1030000035916591959105907FE27395E118F10AEC
:10301000430B560BC90BD009C0F7E10CF11E431F3F
:10302000561FC91FD01D7EF4703311F48A95E6CF68
:10303000E894015030F0080F0AF40027021708F452
:10304000202F2395022F7A3328F079E37D932A9558
:10305000E9F710C07D932A9589F6069497956795B0
:10306000379517951794E118F10A430B560BC90BC6
:10307000D00998F023957E9173957A3308F070E328
:103080007C932013B8F77E9170617D9330F0839527
:1030900071E37D9370E32A95E1F71124EF90FF909F
:1030A0000F911F91CF91DF91992787FD90950895FA
:1030B000992788270895FB01DC014150504088F092
:1030C0008D9181341CF08B350CF4805E65916134F8
:1030D0001CF06B350CF4605E861B611171F3990B6B
:1030E0000895881BFCCFDC01FC01672F71917723C9
:1030F000E1F7329704C07C916D9370836291AE17B3
:10310000BF07C8F308950E94C51808F481E0089528
:10311000E89409C097FB3EF4909580957095619571
:103120007F4F8F4F9F4F9923A9F0F92F96E9BB2727
:103130009395F695879577956795B795F111F8CFA3
:10314000FAF4BB0F11F460FF1BC06F5F7F4F8F4F0E
:103150009F4F16C0882311F096E911C0772321F004
:103160009EE8872F762F05C0662371F096E8862F9C
:1031700070E060E02AF09A95660F771F881FDAF7F3
:10318000880F9695879597F90895990F0008550F20
:10319000AA0BE0E8FEEF16161706E807F907C0F0DD
:1031A00012161306E407F50798F0621B730B840BE5
:1031B000950B39F40A2661F0232B242B252B21F4BF
:1031C00008950A2609F4A140A6958FEF811D811D5F
:1031D00008950E94FC180C946D190E945F1938F034
:1031E0000E94661920F0952311F00C9456190C9446
:1031F0005C1911240C94A1190E947E1970F3959FFB
:10320000C1F3950F50E0551F629FF001729FBB27DD
:10321000F00DB11D639FAA27F00DB11DAA1F649F79
:103220006627B00DA11D661F829F2227B00DA11D2C
:10323000621F739FB00DA11D621F839FA00D611DB2
:10324000221F749F3327A00D611D231F849F600DD3
:10325000211D822F762F6A2F11249F5750409AF0FC
:10326000F1F088234AF0EE0FFF1FBB1F661F771F88
:10327000881F91505040A9F79E3F510580F00C9453
:1032800056190C94A1195F3FE4F3983ED4F3869548
:1032900077956795B795F795E7959F5FC1F7FE2BF3
:1032A000880F911D9695879597F9089597F99F67CF
:1032B00080E870E060E008959FEF80EC08950024BE
:1032C0000A941616170618060906089500240A948B
:1032D00012161306140605060895092E0394000C11
:1032E00011F4882352F0BB0F40F4BF2B11F460FFA0
:1032F00004C06F5F7F4F8F4F9F4F089557FD9058C9
:10330000440F551F59F05F3F71F04795880F97FBA9
:10331000991F61F09F3F79F0879508951216130663
:103320001406551FF2CF4695F1DF08C01616170692
:103330001806991FF1CF86957105610508940895C7
:10334000E894BB2766277727CB0197F90895F99969
:10335000FECF92BD81BDF89A992780B50895DB0113
:103360008F939F930E94E119BF91AF91A29F800D0F
:10337000911DA39F900DB29F900D11240895A1E27D
:103380001A2EAA1BBB1BFD010DC0AA1FBB1FEE1FDF
:10339000FF1FA217B307E407F50720F0A21BB30B2A
:1033A000E40BF50B661F771F881F991F1A9469F7A6
:1033B00060957095809590959B01AC01BD01CF0102
:1033C00008950E94231AA59F900DB49F900DA49F6D
:1033D000800D911D112408952F923F924F925F927C
:1033E0006F927F928F929F92AF92BF92CF92DF9215
:1033F000EF92FF920F931F93CF93DF93CDB7DEB77A
:10340000CA1BDB0B0FB6F894DEBF0FBECDBF09940D
:103410002A88398848885F846E847D848C849B8464
:10342000AA84B984C884DF80EE80FD800C811B8172
:10343000AA81B981CE0FD11D0FB6F894DEBF0FBEA1
:10344000CDBFED010895A29FB001B39FC001A39F1E
:10345000700D811D1124911DB29F700D811D1124CD
:10346000911D08955058BB27AA270E944A1A0C9410
:103470006D190E945F1938F00E94661920F039F426
:103480009F3F19F426F40C945C190EF4E095E7FBC9
:103490000C945619E92F0E947E1958F3BA17620747
:1034A00073078407950720F079F4A6F50C94A0190A
:1034B0000EF4E0950B2EBA2FA02D0B01B90190014F
:1034C0000C01CA01A0011124FF27591B99F0593F93
:1034D00050F4503E68F11A16F040A22F232F342FDB
:1034E0004427585FF3CF469537952795A795F04029
:1034F0005395C9F77EF41F16BA0B620B730B840B3E
:10350000BAF09150A1F0FF0FBB1F661F771F881FF5
:10351000C2F70EC0BA0F621F731F841F48F487954D
:1035200077956795B795F7959E3F08F0B0CF93953F
:10353000880F08F09927EE0F9795879508950E94B8
:10354000B31A0C946D190E94661958F00E945F1905
:1035500040F029F45F3F29F00C94561951110C9456
:10356000A1190C945C190E947E1968F39923B1F398
:10357000552391F3951B550BBB27AA276217730799
:10358000840738F09F5F5F4F220F331F441FAA1F2D
:10359000A9F335D00E2E3AF0E0E832D091505040E9
:1035A000E695001CCAF72BD0FE2F29D0660F771F97
:1035B000881FBB1F261737074807AB07B0E809F07D
:1035C000BB0B802DBF01FF2793585F4F3AF09E3F02
:1035D000510578F00C9456190C94A1195F3FE4F34F
:1035E000983ED4F3869577956795B795F7959F5F45
:1035F000C9F7880F911D9695879597F90895E1E091
:10360000660F771F881FBB1F621773078407BA07EF
:1036100020F0621B730B840BBA0BEE1F88F7E0954A
:10362000089597FB072E16F4009407D077FD09D074
:103630000E944C1B07FC05D03EF4909581959F4F4E
:103640000895709561957F4F0895052E97FB1EF4A0
:1036500000940E943C1B57FD07D00E94BF1907FC35
:1036600003D04EF40C943C1B509540953095219519
:103670003F4F4F4F5F4F089590958095709561959E
:103680007F4F8F4F9F4F0895B7FF0C94E1190E9411
:10369000E119821B930B0895AA1BBB1B51E107C0C4
:1036A000AA1FBB1FA617B70710F0A61BB70B881FD2
:1036B000991F5A95A9F780959095BC01CD01089561
:1036C000EE0FFF1F0590F491E02D09940F931F93C7
:1036D000CF93DF938230910510F482E090E0E09187
:1036E000F603F091F70330E020E0B0E0A0E030977F
:1036F00099F42115310509F44AC0281B390B2430EF
:103700003105D8F58A819B816115710589F1FB012D
:1037100093838283FE0111C0408151810281138114
:1037200048175907E0F04817590799F4109761F0C6
:1037300012960C93129713961C933296CF01DF9139
:10374000CF911F910F9108950093F6031093F70303
:10375000F4CF2115310551F04217530738F0A90174
:10376000DB019A01BD01DF01F801C1CFEF01F9CF03
:103770009093F7038093F603CDCFFE01E20FF31F82
:10378000819391932250310939832883D7CF209197
:10379000F4033091F503232B41F42091060130917D
:1037A00007013093F5032093F40320910401309135
:1037B00005012115310541F42DB73EB740910801AF
:1037C00050910901241B350BE091F403F091F503AE
:1037D000E217F307A0F42E1B3F0B2817390778F0E8
:1037E000AC014E5F5F4F2417350748F04E0F5F1F47
:1037F0005093F5034093F403819391939FCFF0E0AE
:10380000E0E09CCFCF93DF930097E9F0FC01329783
:1038100013821282A091F603B091F703ED0130E01C
:1038200020E01097A1F420813181820F931F209115
:10383000F4033091F5032817390709F061C0F093BC
:10384000F503E093F403DF91CF910895EA01CE17D9
:10385000DF07E8F54A815B819E0141155105B1F70B
:10386000E901FB83EA8349915991C40FD51FEC17F5
:10387000FD0761F4808191810296840F951FE90113
:1038800099838883828193819B838A83F0E0E0E03F
:1038900012968D919C9113970097B9F52D913C91BB
:1038A0001197CD010296820F931F2091F40330915E
:1038B000F5032817390739F6309751F51092F703B9
:1038C0001092F603B093F503A093F403BCCFD38317
:1038D000C28340815181840F951FC817D90761F4B5
:1038E0004E5F5F4F88819981480F591F51834083F4
:1038F0008A819B81938382832115310509F0B0CFA2
:10390000F093F703E093F6039ECFFD01DC01C0CFF7
:1039100013821282D7CFB0E0A0E0E1E9FCE10C9481
:10392000EE198C01009751F4CB010E94661B8C01AB
:10393000C801CDB7DEB7E0E10C940A1AFC01E60F2E
:10394000F71F9C0122503109E217F30708F49DC0CC
:10395000D901CD91DC911197C617D70798F0C530E2
:10396000D10530F3CE0104978617970708F3C61BDD
:10397000D70B2297C193D1936D937C93CF010E9473
:10398000021CD6CF5B01AC1ABD0A4C018C0E9D1EE9
:10399000A091F603B091F703512C412CF12CE12CAE
:1039A000109731F58091F4039091F50388159905EE
:1039B00009F05CC04616570608F058C08091040113
:1039C00090910501009741F48DB79EB74091080191
:1039D00050910901841B950BE817F90708F055C0B1
:1039E000F093F503E093F403F90171836083A0CFB2
:1039F0008D919C91119712966C90129713967C90D2
:103A00001397A815B90559F56C0142E0C40ED11CF5
:103A1000CA14DB0420F1AC014A195B09DA011296E1
:103A2000159780F06282738251834083D9016D9330
:103A30007C93E114F10471F0D7011396FC93EE939B
:103A4000129776CF22968C0F9D1FF9019183808368
:103A5000F301EFCFF093F703E093F60369CF481635
:103A6000590608F42C017D01D3019ACFCB010E94A5
:103A7000661B7C01009749F0AE01B8010E94481D09
:103A8000C8010E94021C870153CF10E000E050CF14
:103A9000FB01DC0102C001900D9241505040D8F76B
:103AA0000895FB01DC0101900D920020E1F70895DB
:103AB00011E0CDE0D1E004C0FE010E94601B219620
:0A3AC000CE30D107C9F7F894FFCF0C
:103ACA008B038B030000F8038000000000008B05C5
:103ADA003901B4068A05E705FF0572055E00BC00D8
:103AEA00770100000000D901390166012602970119
:103AFA00750189010D0A0052656164696E67207457
:103B0A00656D70657261747572652E2E2E00526530
:103B1A006164696E6720636F6E6475637469766940
:103B2A00747920616E642073616C696E6974792E90
:103B3A002E2E006F2C732C3100542C0052656164B8
:103B4A00696E6720646973736F6C766564206F7839
:103B5A007967656E2E2E2E0052656164696E672044
:103B6A0070482E2E2E0052656164696E6720636864
:103B7A006C2E2E2E0052656164696E672062617434
:103B8A0074657279206C6576656C2E2E2E007370C2
:103B9A00646174612C00443A455200443A4F4B0028
:00000001FF
