:100000000C940E010C9436010C9436010C94330DB3
:100010000C94330D0C94330D0C94AB0D0C943601F1
:100020000C9436010C9436010C9436010C94360174
:100030000C9436010C9436010C9436010C94360164
:100040000C94E90C0C9436010C94B70C0C94910CA4
:100050000C9436010C9436010C9436010C94360144
:100060000C9436010C9436014E414E494E49545978
:10007000494E46CDCCCC3D0AD7233C17B7D1387773
:10008000CC2B329595E6241FB14F0A000020410089
:1000900000C84200401C4620BCBE4CCA1B0E5AAED3
:1000A000C59D7400407A10F35A00A0724E180900E2
:1000B00010A5D4E80000E87648170000E40B5402CD
:1000C0000000CA9A3B000000E1F505000080969808
:1000D00000000040420F000000A086010000001058
:1000E0002700000000E8030000000064000000009A
:1000F000000A00000000000100000000002C76D87B
:1001000088DC674F0823DFC1DFAE59E1B1B796E560
:10011000E3E453C63AE651997696E8E6C28426EBC4
:10012000898C9B62ED407C6FFCEFBC9C9F40F2BAD7
:10013000A56FA5F490055A2AF75C936B6CF9676D6F
:10014000C11BFCE0E40D47FEF520E6B500D0ED90C4
:100150002E0300943577050080841E080000204E91
:100160000A000000C80C333333330F986E1283112A
:1001700041EF8D2114893BE65516CFFEE6DB18D101
:10018000844B381BF77C1D901DA4BBE424203284D3
:10019000725E228100C9F124ECA1E53D27005EBC1E
:1001A000E2613FDD83C29C7E20A3FD1F41009D23B1
:1001B000BE46DB65F88C11AF32CA57E97400000007
:1001C00000240027002A00000000080002010000AF
:1001D00003040700000000000000000000000025EC
:1001E0000028002B00000000002300260029000446
:1001F00004040404040404020202020202030303CE
:1002000003030301020408102040800102040810C7
:100210002001020408102000B50D911311241FBE07
:10022000CFEFD8E0DEBFCDBF11E0A0E0B1E0E2EF5C
:10023000FAE302C005900D92AC36B107D9F724E07D
:10024000ACE6B1E001C01D92A237B207E1F711E0C0
:10025000CDE0D1E004C02197FE010E94741BCC3098
:10026000D107C9F70E94840E0C946C1D0C940000F9
:10027000EBE6F3E0A089B18982E08C93A485B58593
:100280001C92A685B7858FEC8C93108EA489B589B6
:1002900086E08C93A289B3898C9180618C93A2892A
:1002A000B3898C9188608C93A289B3898C91806882
:1002B0008C930288F389E02D80818F7D808308955F
:1002C000CF93DF93C7EDD1E060E070E0CB012991DF
:1002D0003991499159910E942E1A23E0C736D207CD
:1002E000B1F720E030E048EC52E40E949A1ADF9126
:1002F000CF9108950895AF92BF92CF92DF92EF927F
:10030000FF920F931F93CF93DF936C017B018B01BF
:10031000040F151FEB015E01AE18BF08C017D1070F
:1003200059F06991D601ED91FC910190F081E02D99
:10033000C6010995892B79F7C501DF91CF911F91EE
:100340000F91FF90EF90DF90CF90BF90AF90089506
:10035000FC01538D448D252F30E0842F90E0821BCB
:10036000930B541710F0CF96089501970895FC0150
:10037000918D828D981761F0A28DAE0FBF2FB11DA8
:100380005D968C91928D9F5F9F73928F90E0089500
:100390008FEF9FEF0895FC01918D828D981731F0BA
:1003A000828DE80FF11D858D90E008958FEF9FEF0E
:1003B0000895FC01918D228D892F90E0805C9F4FE4
:1003C000821B91098F73992708958BE693E00E9411
:1003D000D90121E0892B09F420E0822F089580E0E3
:1003E00090E0892B29F00E94E50181110C94000016
:1003F0000895FC01A48DA80FB92FB11DA35ABF4FBA
:100400002C91848D90E001968F739927848FA68913
:10041000B7892C93A089B1898C91837080648C9367
:10042000938D848D981306C00288F389E02D808116
:100430008F7D80830895EF92FF920F931F93CF9348
:10044000DF93EC0181E0888F9B8D8C8D98131AC00F
:10045000E889F989808185FF15C09FB7F894EE89F6
:10046000FF896083E889F989808183708064808353
:100470009FBF81E090E0DF91CF911F910F91FF909E
:10048000EF900895F62E0B8D10E00F5F1F4F0F7346
:100490001127E02E8C8D8E110CC00FB607FCFACF01
:1004A000E889F989808185FFF5CFCE010E94F901A5
:1004B000F1CFEB8DEC0FFD2FF11DE35AFF4FF082D2
:1004C0009FB7F8940B8FEA89FB8980818062CFCF38
:1004D000CF93DF93EC01888D8823B9F0AA89BB897B
:1004E000E889F9898C9185FD03C0808186FD0DC066
:1004F0000FB607FCF7CF8C9185FFF2CF808185FF87
:10050000EDCFCE010E94F901E9CFDF91CF9108959F
:100510008BE693E00E946802EBE6F3E0A289B389E0
:100520008C918F7E8C93A289B3898C91877F8C93D9
:10053000A289B3898C918F778C93A289B3898C918E
:100540008F7D8C93828D818F089590E0FC01E9531B
:10055000FE4F2491FC01ED5FFD4F3491FC01E15110
:10056000FE4FE491EE23C9F0222339F0233001F14C
:10057000A8F4213019F1223029F1F0E0EE0FFF1F2D
:10058000E552FE4FA591B4918FB7F894EC916111AB
:1005900026C030953E233C938FBF08952730A9F0A5
:1005A0002830C9F0243049F7809180008F7D03C046
:1005B000809180008F7780938000DFCF84B58F7724
:1005C00084BDDBCF84B58F7DFBCF8091B0008F776A
:1005D0008093B000D2CF8091B0008F7DF9CF3E2BB9
:1005E000DACFCF93DF9390E0FC01ED5FFD4F2491D4
:1005F00081519E4FFC0184918823D1F090E0880FB7
:10060000991FFC01E354FE4FA591B491FC01E55202
:10061000FE4FC591D49161110EC09FB7F8948C9193
:10062000E22FE0958E238C932881E223E8839FBFFD
:10063000DF91CF9108958FB7F894EC91E22BEC9372
:100640008FBFF6CF0F931F93CF93DF93EC01162F3D
:10065000042F1B821A8288EE93E0A0E0B0E08C8326
:100660009D83AE83BF838EE091E0998388831F8A48
:100670001E8A198E188E1B8E1A8E1D8E1C8E6E8DE4
:100680006E7F6D7F6E8F6695617081E06827842F25
:100690000E94A50261E0802F0E94F102802F90E06D
:1006A000FC01ED5FFD4FE491E88BFC01E151FE4F51
:1006B000E491F0E0EE0FFF1FE552FE4F859194911B
:1006C0009A8B898B60E0812F0E94F1028E8D81FDD3
:1006D00004C061E0812F0E94A5021C87812F90E059
:1006E000FC01ED5FFD4FE491ED87FC01E151FE4F10
:1006F000E491F0E0EE0FFF1FEB51FE4F85919491D6
:100700009F878E87DF91CF911F910F9108958E3033
:1007100008F08E508770806480937C0080917A000E
:10072000806480937A0080917A0086FDFCCF80916E
:1007300078009091790008953FB7F8948091B501C1
:100740009091B601A091B701B091B80126B5A89BD0
:1007500005C02F3F19F00196A11DB11D3FBFBA2F53
:10076000A92F982F8827BC01CD01620F711D811D13
:10077000911D42E0660F771F881F991F4A95D1F798
:1007800008958F929F92AF92BF92CF92DF92EF9295
:10079000FF926B017C010E949C034B015C01C11420
:1007A000D104E104F104B9F00E949C0368197909AD
:1007B0008A099B09683E73408105910580F321E019
:1007C000C21AD108E108F10888EE880E83E0981E6D
:1007D000A11CB11CE4CFFF90EF90DF90CF90BF90B1
:1007E000AF909F908F9008952FB7F8946091B101CA
:1007F0007091B2018091B3019091B4012FBF08951F
:10080000DC0180E0615090F09D919827E92FEF7016
:10081000F0E0E356FE4F2491E92FE295EF70F0E00F
:10082000E355FE4FE491822F8E27ECCF0895DC0133
:100830002C911196ED91FC91F8948181822B81830A
:100840009281322F30959323928387E090E0019735
:10085000F1F781818323818383E290E00197F1F7AF
:1008600090817894EFECF0E03197F1F7922381E0FA
:1008700009F480E00895FC0190810180F281E02D6F
:10088000292F209560FF14C0F894828182238283EF
:100890008181892B8183A3E2B0E01197F1F78281F6
:1008A000982B9283789487ED90E00197F1F7089563
:1008B000F8948281822382838181892B8183AFEFA7
:1008C000B0E01197F1F78281982B928378948FE0B2
:1008D00090E0EBCFDF92EF92FF920F931F93CF93B5
:1008E000DF93EC01D62EE42E08E010E0FF24F39411
:1008F00061E08D2D8F2109F460E0CE010E943B0460
:10090000FF0C01501109A1F7E11010C0F894E98122
:10091000FA8191818881809589238183E981FA8197
:10092000928188818095892382837894DF91CF9109
:100930001F910F91FF90EF90DF900895EF92FF923B
:100940000F931F93CF93DF938C017B0140E065E50C
:100950000E946A04E70188E0E80EF11C699140E01A
:10096000C8010E946A04CE15DF05C1F7DF91CF915F
:100970001F910F91FF90EF900895FC0190810180ED
:10098000F281E02DF8948181292F209582238183A3
:1009900078943DE743E050E0315029F1DA011197B6
:1009A000F1F780818923C1F3F894828182238283C5
:1009B0008181892B81837894ABE7B7E01197F1F7B8
:1009C000F894818182238183A3E1B1E01197F1F74B
:1009D0008081982381E009F080E07894E3E6F6E0F6
:1009E0003197F1F7089580E00895AF92BF92CF92CA
:1009F000DF92EF92FF920F931F93CF93DF938B01C0
:100A0000BC0180913E0490913F040E949E0440E00E
:100A10006EEB80913E0490913F040E946A04E801CD
:100A2000680189E0C80ED11CA0903E04B0903F043C
:100A300088E0E82EF12C10E001E0C5010E941704C7
:100A40008111102B000F81E0E81AF108B1F719931A
:100A5000CC16DD0649F780913E0490913F040E9438
:100A6000BD0491E0813009F090E0892FDF91CF91B2
:100A70001F910F91FF90EF90DF90CF90BF90AF90BC
:100A800008958F929F92AF92BF92CF92DF92EF9292
:100A9000FF9280913E0490913F040E94BD0440E08B
:100AA0006CEC80913E0490913F040E946A04409156
:100AB000380464E480913E0490913F040E946A04EB
:100AC00080913A04882399F1E0913904E9508EEE3F
:100AD000C82E82E0D82EE33038F4F0E0EE0FFF1F8E
:100AE000E45EFE4FC080D18080913B04882341F1B9
:100AF00080913804811124C00E94F4034B015C01F1
:100B00000D2C000CEE08FF0880913E0490913F04EC
:100B10000E941704813059F00E94F4036C197D097A
:100B20008E099F09681579058A059B0568F3FF9072
:100B3000EF90DF90CF90BF90AF909F908F900895EF
:100B4000B601DD0C880B990BFF90EF90DF90CF90F2
:100B5000BF90AF909F908F900C94C1030F931F9301
:100B6000CF93DF93CDB7DEB729970FB6F894DEBFEA
:100B70000FBECDBF8C0180913E0490913F040E9436
:100B8000BD04811102C080E01FC0BE016F5F7F4FB6
:100B9000C8010E94F5048823B1F368E0CE010196F4
:100BA0000E94000499858913EECF8D818F33B9F0AF
:100BB00020F48F3141F789E007C08F3521F08F375E
:100BC00011F78CE001C08BE029960FB6F894DEBFD8
:100BD0000FBECDBFDF91CF911F910F9108958AE095
:100BE000F3CF2091AE013091AF012817390771F48E
:100BF0009091AD018091AC01981741F0E091AD0169
:100C0000F0E0E459FE4F808190E008958FEF9FEF70
:100C100008950895EF92FF920F931F93CF93DF9360
:100C2000DC015C96ED90FC905D97E114F10479F4A1
:100C300081E090E013969C938E93129790E080E071
:100C4000DF91CF911F910F91FF90EF9008955196F2
:100C5000ED91FC91529750968C915097982F9095CA
:100C60000FB75E962C915E97122F127021FD609542
:100C7000F8942081112319F1282B2083E701219773
:100C8000F1F728E0462F50E0308160FF1AC0382B82
:100C90003083E7012197F1F7BA01759567952150E7
:100CA00089F7112381F08081892380830FBF5C96AF
:100CB0008D919C910197F1F781E090E0C1CF2923BC
:100CC000DCCF3923E5CF9081892BEFCF2091AE0186
:100CD0003091AF012817390771F48091AC01209150
:100CE000AD0190E0805C9F4F821B910960E470E051
:100CF0000E944C1B089590E080E008952091AE0181
:100D00003091AF0128173907B9F49091AD01809166
:100D1000AC01981789F0E091AD01F0E0E459FE4F85
:100D200080812091AD0130E02F5F3F4F2F7333273B
:100D30002093AD0190E008958FEF9FEF0895E0912B
:100D4000AE01F091AF01E817F90769F4A389B489FE
:100D50009C918589809589238C931092AF01109284
:100D6000AE0181E0089580E00895CF93DF93EC0118
:100D70008A8D9B8D892B01F18091AE019091AF01FD
:100D80008C179D07C9F0009711F00E949F068E8D69
:100D90008E7F8E8F1092AC011092AD01D093AF0177
:100DA000C093AE01EB89FC8980819D89892B80836A
:100DB00081E0DF91CF91089580E0FBCFFC01138E9D
:100DC000128E118E108E178A168A8DE991E0958FFA
:100DD000848F84858631D8F52DEB30E0378B268BD8
:100DE0002BE931E0318F208F2CE231E0338F228FDD
:100DF00090916800883070F121E08E3008F420E096
:100E000081E001C0880F2A95EAF7892B809368005A
:100E100084852DE630E0883050F02BE630E08E30CF
:100E200030F02CE630E0863110F030E020E0348BFA
:100E3000238B282F30E0883078F491E001C0990F9F
:100E40008A95EAF7958B848D958D0197F1F7CF01FF
:100E50000C94B50684E0D9CF8E3040F42850310987
:100E600091E001C0990F2A95EAF7ECCF2E50310995
:100E7000F7CF90E080E008954F925F926F927F925B
:100E80008F929F92AF92BF92CF92DF92EF92FF929A
:100E9000CF93DF930E948703FC01C4E6D4E048802F
:100EA00059806A807B8084E6882E912CA12CB12CFD
:100EB000A501940124193509460957096C817D81E2
:100EC0008E819F810E9483196B017C01A4E6B0E0B2
:100ED000A30192010E94D4199B01AC01DF010E9481
:100EE000DF196C0D7D1D8E1D9F1D6E5C7F4F8F4F1A
:100EF0009F4FA50194010E94B5192C833D834E8319
:100F00005F83CA01B9016E5C7F4F8F4F9F4FA50170
:100F100094010E94B519C901DF91CF91FF90EF9024
:100F2000DF90CF90BF90AF909F908F907F906F9009
:100F30005F904F9008954F925F926F927F928F9241
:100F40009F92AF92BF92DF92EF92FF920F931F9307
:100F5000CF93DF937C01CAE0D0E0C7010E943C0739
:100F60002197D9F7C7EDD1E02EE4D22E812C30E3C2
:100F7000932E31E1A32EB12CC7010E943C078C01B6
:100F8000D0927C0062E070E080E090E00E94C103BB
:100F900080917A00806480937A0080917A0086FD47
:100FA000FCCF809178002091790030E0322F222709
:100FB000032E000C440B550B282BC501B4010E94D5
:100FC000B519CA01B9010E945E1820E030E04AE775
:100FD00054E40E949A1A2B013C01B801110F880BAE
:100FE000990B0E945E189B01AC01C301B2010E94E3
:100FF000BD1820E030E040E85AE30E94BD18699334
:1010000079938993999383E0C736D80709F0B4CFD1
:10101000DF91CF911F910F91FF90EF90DF90BF90E4
:10102000AF909F908F907F906F905F904F900895BA
:10103000BF92CF92DF92EF92FF920F931F93CF93C5
:10104000DF93EC01B62EC72E8D85811105C0CE0130
:101050000E94BD0481110EC01B861D861C8680E087
:10106000DF91CF911F910F91FF90EF90DF90CF9084
:10107000BF90089540E060EFCE010E946A0401E055
:10108000E12CD12C11E0CE010E941704F82ECE01E4
:101090000E94170491E0F91218C0813099F51134BB
:1010A000D8F2DB86D11002C081E08D878B81882346
:1010B00099F22396EB2DFC2DCF01089629912193CF
:1010C000E817F907D9F781E0CBCFEE2DF0E0F81261
:1010D0000FC08B851817A0F4DE01AE0FBF1F13964B
:1010E0008C91802379F4F12C193008F41C87D12ECF
:1010F000EC0FFD1F8381902F9095892383830AC075
:101100008113F1CFFE01EE0DF11D8381802B8383CE
:10111000FF24F3946F2DCE010E943B041F5F000F4C
:1011200011F4E39401E087E08E1508F0ACCFB7CF5F
:10113000CF93DF93CDB7DEB761970FB6F894DEBFDC
:101140000FBECDBFE0913E04F0913F04138615869B
:1011500014861286118610861782168215821482D2
:101160001382BE01665F7F4F80913E0490913F04E1
:101170000E94180881110DC060E070E08EEF92ECC3
:1011800061960FB6F894DEBF0FBECDBFDF91CF9151
:10119000089567E0CE010A960E9400049989891398
:1011A000EBCF80913E0490913F040E94BD048823C0
:1011B00019F3BE016F5F7F4FCE010A960E94F504BE
:1011C0008823D1F268E0CE0101960E94000499853F
:1011D0008913D2CF6A8170E0762F6627770F770F59
:1011E000770F298148E0249F90011124262B372B6B
:1011F0008A858031D1F4688570E08F81AB01481B0E
:101200005109CA019695982F8827979587950E942E
:101210004C1BCB014097B90153E0660F771F5A95DD
:10122000E1F760789C01260F371F213854EE35070F
:101230000CF4A2CFB901330F880B990B0E945E18F2
:1012400020E030E040E05CE30E94BD1899CF0F93AE
:101250001F93CF93DF93CDB7DEB728970FB6F894DF
:10126000DEBF0FBECDBFE0913E04F0913F04138678
:1012700015861486128611861086178216821582AC
:101280001482138210923C0410923D0401E0BE01CE
:101290006F5F7F4F80913E0490913F040E94180839
:1012A000882309F46AC067E0CE0101960E94000419
:1012B00098858913ECCF80913804811128C08091E2
:1012C0003E0490913F040E94BD04BE016F5F7F4FBA
:1012D00080913E0490913F040E949E0440E064EBA4
:1012E00080913E0490913F040E946A0480913E04E4
:1012F00090913F040E941704182F80913E04909112
:101300003F040E94BD04111102C0009338041091E3
:1013100039048981803171F1CE0101960E94AE05B8
:101320008117C0F4809139048093390480913C0482
:101330008F5F80933C048981883231F0A8F480313A
:1013400019F0823209F0A3CF80913D048F5F809322
:101350003D049DCF8981803111F48CE0E5CFCE0131
:1013600001960E94AE05E0CF8B3371F3823409F011
:101370008ECFEACF1D30B0F6F0CF28960FB6F89496
:10138000DEBF0FBECDBFDF91CF911F910F910895AA
:10139000FC0101900020E9F73197AF01481B590B80
:1013A000BC018BE693E00C947B01CF93DF93ECE2DE
:1013B000F4E044815581608171818BE693E00E9465
:1013C0007B01EC0184E391E00E94C8098C0F9D1F12
:1013D000DF91CF9108958F929F92AF92BF920F931A
:1013E0001F93CF93DF93CDB7DEB7A1970FB6F894D5
:1013F000DEBF0FBECDBF19A2423008F44AE08E0115
:101400000F5D1F4F842E912CB12CA12CA5019401AE
:101410000E949319E62FB901CA01EA30F4F4E05DA5
:10142000D801EE938D01232B242B252B79F790E007
:1014300080E0109719F0CD010E94C809A1960FB65F
:10144000F894DEBF0FBECDBFDF91CF911F910F91FA
:10145000BF90AF909F908F900895E95CE1CF4F923D
:101460005F926F927F928F929F92AF92BF92CF9234
:10147000DF92EF92FF926B017C01AC019B010E9415
:10148000471B8823C1F087E391E00E94C8097C01D3
:1014900084E391E00E94C8098E0D9F1DFF90EF909C
:1014A000DF90CF90BF90AF909F908F907F906F9084
:1014B0005F904F90089546015701E894B7F82FEFD9
:1014C0003FEF4FE75FE7C501B4010E94471B811161
:1014D0000DC02FEF3FEF4FE75FE7C501B4010E945A
:1014E000571818161CF48BE391E0CFCF2FEF3FEF86
:1014F0004FE75FE4C701B6010E94421B18161CF4B7
:101500008FE391E0C2CF2FEF3FEF4FE75FECC701D2
:10151000B6010E94571887FDF3CF20E030E0A90103
:10152000C701B6010E945718B12CA12C87FF0AC031
:101530006DE28BE693E00E941B025C01F7FAF094E7
:10154000F7F8F0942AE037ED43EA5BE3C701B60110
:101550000E942E1A2B013C010E94131B6B017C017F
:101560000E945C189B01AC01C301B2010E942D1ABC
:101570002B013C014AE0C701B6010E94EB097C0146
:10158000EA0CFB1C6EE28BE693E00E941B02E80E65
:10159000F91E20E030E040E251E4C301B2010E94B4
:1015A000BD182B013C010E94131B4B01B12CA12C37
:1015B0004AE0C501B4010E94EB09E80EF91EC5011D
:1015C000B4010E945C189B01AC01C301B2010E94EE
:1015D0002D1A20E030E040E251E40E94BD180E9444
:1015E000131B90E080E04AE00E94EB09E80EF91E30
:1015F0004FCFCF92DF92EF92FF920F931F93CF9333
:10160000DF93EB017B0124E0E20EF11C8B016C0106
:10161000C61AD70AC601800F911F0E947B19F801D4
:1016200081938F01EE15FF05A9F7CE01DF91CF91D0
:101630001F910F91FF90EF90DF90CF9008950F933F
:101640001F93CF93DF938C01EB01FC01808191818B
:101650000097E1F06881798161157105A9F04281F7
:1016600053812C813D814217530770F00E94651D04
:101670008C819D81F801958384831D821C82DF917A
:10168000CF911F910F9108950E94161C8881998116
:10169000F801918380838A819B81938382838C81EB
:1016A0009D8195838483198218821B821A82E5CFDB
:1016B000CF93DF93EC0188819981009711F00E940C
:1016C000161C198218821D821C821B821A82DF91CD
:1016D000CF910895FC01808191810C94161C0F9389
:1016E0001F93CF93DF93EC0188819981009759F084
:1016F0002A813B812617370730F081E0DF91CF91B7
:101700001F910F9108958B016F5F7F4F0E949F1C67
:10171000009759F0998388831B830A832C813D812C
:10172000232B59F7FC011082E8CF80E0E7CFEF923E
:10173000FF920F931F93CF93DF936115710541F4CF
:1017400080E0DF91CF911F910F91FF90EF9008956E
:1017500041155105B1F07B01EC010C811D81040F95
:10176000151FB8010E946F0B882351F3288139811E
:101770008C819D81B701820F931F0E94651D1D837F
:101780000C8381E0DECFCF93DF93EC01FB0101906E
:101790000020E9F73197AF01461B570B0E94970BCA
:1017A000811103C0CE010E94580BCE01DF91CF9171
:1017B0000895CF93DF93EC01FB0144815581608153
:1017C00071810E94970B811103C0CE010E94580BBA
:1017D000CE01DF91CF910895CF93DF9300D0CDB7A5
:1017E000DEB769831A8241E050E0BE016F5F7F4F30
:1017F0000E94970B0F900F90DF91CF910895EF9279
:10180000FF920F931F93CF93DF93EC017B018A012B
:10181000BA010E946F0B81110BC0CE010E94580BC0
:10182000CE01DF91CF911F910F91FF90EF9008951E
:101830001D830C83B701888199810E94651DF0CFBB
:10184000FB0101900020E9F73197AF01461B570BD0
:101850000C94FF0BEF92FF920F931F93CF93DF93A4
:10186000CDB7DEB7A1970FB6F894DEBF0FBECDBFE0
:101870007C01CB01BA01F70111821082138212821E
:10188000158214828E010F5F1F4F22E044E00E94F8
:10189000B113009789F0BC01C7010E94200CA196EA
:1018A0000FB6F894DEBF0FBECDBFDF91CF911F9171
:1018B0000F91FF90EF900895C7010E94580BEFCF52
:1018C000CF93DF93EC01FB018617970749F0608106
:1018D00071816115710541F0448155810E94FF0BB2
:1018E000CE01DF91CF9108950E94580BF9CFFC01F2
:1018F0001182108213821282158214820C94600C61
:10190000FC01118210821382128215821482FB0163
:1019100001900020E9F73197AF01461B570B0C945B
:10192000FF0B1F920F920FB60F9211242F933F932C
:101930004F935F936F937F938F939F93AF93BF93D7
:10194000EF93FF938BE693E00E94F901FF91EF91F3
:10195000BF91AF919F918F917F916F915F914F91C7
:101960003F912F910F900FBE0F901F9018951F92CF
:101970000F920FB60F9211242F938F939F93EF9393
:10198000FF93E0917B03F0917C038081E0918103E0
:10199000F091820382FD1BC09081809184038F5F50
:1019A0008F7320918503821741F0E0918403F0E06A
:1019B000E559FC4F958F80938403FF91EF919F91A0
:1019C0008F912F910F900FBE0F901F9018958081CF
:1019D000F4CF1F920F920FB60F9211242F933F93C3
:1019E0008F939F93AF93BF938091B1019091B20178
:1019F000A091B301B091B4013091B00123E0230F65
:101A00002D3758F50196A11DB11D2093B00180938B
:101A1000B1019093B201A093B301B093B40180914E
:101A2000B5019091B601A091B701B091B8010196AE
:101A3000A11DB11D8093B5019093B601A093B7018C
:101A4000B093B801BF91AF919F918F913F912F912A
:101A50000F900FBE0F901F90189526E8230F029647
:101A6000A11DB11DD2CF1F920F920FB60F9211245C
:101A70002F933F934F935F936F937F938F939F9396
:101A8000AF93BF93EF93FF93E091AE01F091AF015D
:101A9000309749F0A685B7858585968D91FF14C04E
:101AA0009C918923A1F4FF91EF91BF91AF919F91F8
:101AB0008F917F916F915F914F913F912F910F90F7
:101AC0000FBE0F901F9018959C91892361F7A389F1
:101AD000B4899C918589809589238C93868997897F
:101AE0000197F1F7608D718DA685B785558538E032
:101AF00020E0CB010197F1F7822F90E09595879533
:101B0000282F4C91452309F02068315091F7868D9C
:101B100081FD20958091AC0190E001968F7399270B
:101B20003091AD01381799F0A091AC01B0E0A45903
:101B3000BE4F2C938093AC01828D938D0197F1F76A
:101B4000A389B4898C919589892B8C93ACCF868D90
:101B50008160868FF1CF1F920F920FB60F921124E2
:101B60000F900FBE0F901F901895EBE6F3E01382D5
:101B7000128288EE93E0A0E0B0E084839583A68390
:101B8000B78386E291E09183808385EC90E095872E
:101B9000848784EC90E09787868780EC90E0918B37
:101BA000808B81EC90E0938B828B82EC90E0958B24
:101BB000848B86EC90E0978B868B118E128E138E21
:101BC000148EE4E6F4E082E390E0A0E0B0E08083ED
:101BD0009183A283B383148215821682178284E0D4
:101BE00090E0909363048093620488E090E0909387
:101BF0006104809360048CE090E090935F04809394
:101C00005E0480E190E090935D0480935C0484E145
:101C100090E090935B0480935A0460E086E00E9419
:101C2000F102E9E0F2E0E491ACE4B4E0EC93E5EF3A
:101C3000F1E0E491F0E0EE0FFF1FEB51FE4F8591D4
:101C4000949112969C938E9311971B961C921B97BE
:101C50001D961C921D971C961C921C971A961C92FE
:101C60001A9719961C92199718961C9218971796FE
:101C70001C92179716961C92169715961C921597FC
:101C800014961C92149713961C921397E8E3F4E0B1
:101C9000B783A68314821582108289E0818381E054
:101CA00082838383138A128A66E371E082E394E07D
:101CB0000E94800C66E371E08CE294E00E94800C4C
:101CC00066E371E086E294E00E94800C66E371E0D6
:101CD00080E294E00E94800C66E371E08AE194E087
:101CE0000E94800C66E371E084E194E00E94800C25
:101CF00066E371E08EE094E00E94800C66E371E0A0
:101D000088E094E00C94800CCF93DF93CDB7DEB7DE
:101D1000CC58D1090FB6F894DEBF0FBECDBF789472
:101D200084B5826084BD84B5816084BD85B58260E0
:101D300085BD85B5816085BD80916E008160809391
:101D40006E001092810080918100826080938100FA
:101D5000809181008160809381008091800081600A
:101D6000809380008091B10084608093B100809165
:101D7000B00081608093B00080917A00846080938D
:101D80007A0080917A00826080937A0080917A0054
:101D9000816080937A0080917A00806880937A00D5
:101DA0001092C1000E94380161E08DE00E94F102B2
:101DB00061E087E00E94F10261E088E00E94F102A8
:101DC00061E08BE00E94F10261E08AE00E94F10292
:101DD00061E08CE00E94F1020E94F4034B015C017F
:101DE0000E94F4036B017C0166E371E0CE018096F2
:101DF0000E94800C83E190E00E949B070E9460019A
:101E000020E030E040E450E40E94571863E471E0C1
:101E1000181614F468E471E0CE0180960E94200C3C
:101E200061E087E00E94A50268EE73E080E090E048
:101E30000E94C1030E9427090E9441050E94980840
:101E4000AB01BC01CE0101960E942A0CBE016F5F5E
:101E50007F4F8AE194E00E941F0BCE0101960E9401
:101E60006A0B80911A0490911B04009709F4E2C058
:101E70000E94731420E030E04EEF52EC0E9457189D
:101E800018160CF4D7C060E087E00E94A502BE01DE
:101E9000605E7F4FCE0101960E94770C64E471E092
:101EA000CE0101960E94C30BBC01CE0180960E9418
:101EB000600CCE0101960E946A0BBE01605E7F4FEE
:101EC0008CE294E00E941F0BCE0180960E946A0B68
:101ED0000E94D509C818D908EA08FB0829E8C216E3
:101EE00023E1D206E104F10408F47ACF90E080E027
:101EF0000E947B198093B90181E090E00E947B19D8
:101F00008093BA0163ED71E0809162049091630463
:101F10000E94F90A6BEC71E0809160049091610479
:101F20000E94F90A67EC71E080915E0490915F0471
:101F30000E94F90A6FEB71E080915C0490915D045E
:101F40000E94F90A6BEB71E080915A0490915B0456
:101F50000E94F90A88E18093600081E2809360002A
:101F60008091600080648093600083B7846083BF49
:101F700083B7816083BF10917A0010927A0064E683
:101F800070E080E090E00E94C1030E94880200E0BF
:101F900061E0802F0E94F10260E0802F0E94A50284
:101FA0000F5F0E30A9F7C12CD12C76012601370125
:101FB00020E030E041EE53E46091D3017091D40110
:101FC0008091D5019091D6010E94BD184B015C0112
:101FD00020E030E0A9010E94421B20E030E040E018
:101FE0005FE387FD35C0C501B4010E942E1A0E942F
:101FF0000C1B4B015C010E941B14EFEFCE1ADE0A92
:10200000EE0AFE0A25E030E040E050E00E94B519FB
:10201000860E971EA81EB91E481459046A047B0434
:10202000E4F485B7806685BF85B78F79806485BF06
:102030008895BCCF60E087E00E94A502BE01605E8B
:102040007F4FCE0101960E94770C69E471E028CFA2
:10205000C501B4010E942D1ACACF10937A0043E043
:1020600062E0CE0180960E94220345E064E0CE014A
:1020700001960E94220366E371E0CE018F579F4FC5
:102080000E94800C83E190E00E949B070E94600107
:1020900020E030E048EC52E40E94BD182DEC3CEC0E
:1020A0004CE650E40E949A1A2B013C0161E087E063
:1020B0000E94A5020E94270968EE73E080E090E08C
:1020C0000E94C1030E9441050E949808AB01BC0117
:1020D000CE01CF960E942A0CBE01615C7F4F8AE13F
:1020E00094E00E941F0BCE01CF960E946A0B60E025
:1020F00087E00E94A50264E670E080E090E00E9424
:10210000C10361E08DE00E94A502CE0180960E948D
:10211000DE060E94F4034B015C010E94F4036B0194
:102120007C0166E371E086E294E00E94200CCE011F
:1021300080960E94B50668EE73E080E090E00E9411
:10214000C103CE0180960E9466061816190654F443
:10215000CE0180960E947E06682F86E294E00E945F
:10216000EC0BEFCFC818D908EA08FB08F1E1CF164D
:10217000F7E2DF06E104F10480F287ED282E81E02A
:10218000382E97E6E92E93E0F92E8101CE01809654
:102190000E9466061816190654F4CE0180960E9415
:1021A0007E06682F86E294E00E94EC0BEFCF8091D0
:1021B000260490912704009709F46BC00E947314C1
:1021C000F80161937193819391938F0162E370E0C1
:1021D00080E090E00E94C103E016F106B9F60E948B
:1021E0006001AB01BC01CE01CF960E942A0CBE015A
:1021F000615C7F4F86E294E00E941F0BCE01CF9678
:102200000E946A0B60E08DE00E94A50264E670E027
:1022100080E090E00E94C103CE0180960E949F065C
:1022200060E082E00E94A50260E083E00E94A502D7
:1022300061E08BE00E94A502CE0101960E94DE06BD
:102240000E94F4034B015C010E94F4036B017C01CA
:1022500066E371E080E294E00E94200CCE010196DA
:102260000E94B50667EE73E080E090E00E94C10333
:10227000CE0101960E9466061816190674F4CE0166
:1022800001960E947E06682F80E294E00E94EC0B8B
:10229000EFCF60E070E0CB0193CFC818D908EA080F
:1022A000FB08F1E1CF16F7E2DF06E104F10460F28A
:1022B000CE0101960E9466061816190654F4CE0146
:1022C00001960E947E06682F80E294E00E94EC0B4B
:1022D000EFCF8091200490912104009709F41DC252
:1022E0000E947314F10161937193819391931F0183
:1022F00062E370E080E090E00E94C10320163106A6
:10230000B9F60E946001AB01BC01CE01CF960E94DC
:102310002A0CBE01615C7F4F80E294E00E941F0B9B
:10232000CE01CF960E946A0B60E08BE00E94A5026E
:1023300064E670E080E090E00E94C103CE01019667
:102340000E949F0660E084E00E94A50260E085E0B4
:102350000E94A50261E088E00E94A5020E94380167
:102360008EE090E00E949B070E9460016093CF0185
:102370007093D0018093D1019093D2018DE491E0CC
:102380000E94C8096091CF017091D0018091D10164
:102390009091D2010E942F0A2091CF013091D0015B
:1023A0004091D1015091D2016091CB017091CC014B
:1023B0008091CD019091CE010E94BD182091C7015E
:1023C0003091C8014091C9015091CA010E942E1A52
:1023D000AB01BC01CE01CF960E942A0CBE01615C0C
:1023E0007F4F84E194E00E941F0BCE01CF960E94A4
:1023F0006A0B60E088E00E94A50264E670E080E07D
:1024000090E00E94C10361E08CE00E94A5020E945E
:10241000F4034B015C010E94F4036B017C0182E137
:102420000E948703C818D908EA08FB08F1E1CF1613
:10243000F7E2DF06E104F10470F382E190E00E942C
:102440009B070E9460016093C3017093C401809355
:10245000C5019093C60188E591E00E94C80960918A
:10246000C3017091C4018091C5019091C6010E9481
:102470002F0A0E9488022091C3013091C40140912B
:10248000C5015091C6016091BF017091C00180915A
:10249000C1019091C2010E94BD182091BB013091F1
:1024A000BC014091BD015091BE010E942E1AAB01AA
:1024B000BC01CE01CF960E942A0CBE01615C7F4F09
:1024C00088E094E00E941F0BCE01CF960E946A0B19
:1024D00060E08CE00E94A502B301A201CE018F5AF8
:1024E0009F4F0E942A0C68E074E0CE01835A9F4FF0
:1024F0000E94770C64E174E0CE018D599F4F0E94D9
:10250000770C6AE174E0CE0187599F4F0E94770CE7
:1025100060E274E0CE0181599F4F0E94770C66E221
:1025200074E0CE018B589F4F0E94770C66E371E0F8
:10253000CE01895A9F4F0E94800CBE016B587F4F7D
:10254000CE01CF960E94770C6AE671E0CE01CF965D
:102550000E94C30BBE0161597F4F0E94D90B6AE6EE
:1025600071E00E94C30BBE0167597F4F0E94D90BD7
:102570006AE671E00E94C30BBE016D597F4F0E9455
:10258000D90B6AE671E00E94C30BBE01635A7F4F0C
:102590000E94D90BBC01CE01895A9F4F0E94600C4A
:1025A000CE01CF960E946A0B8091B9019091BA0139
:1025B000ED961FAE1EAEED97EF961FAE1EAEEF97D7
:1025C000C158DF4F19821882CF57D0404AE0BE0170
:1025D000615C7F4F0E948014BE01615C7F4FCE0121
:1025E00085589F4F0E94200C64E671E0CE01CF9683
:1025F0000E94800CBE0165587F4FCE01CF960E948D
:10260000D90B6AE671E00E94C30BBE01695A7F4F85
:102610000E94D90B6AE671E00E94C30BBE016F5A9B
:102620007F4F0E94D90BBC01CE018F579F4F0E9454
:10263000600CBC01CE0189579F4F0E94770CCE01E0
:10264000CF960E946A0BCE0185589F4F0E946A0B5D
:10265000CE01895A9F4F0E946A0BCE018B589F4F23
:102660000E946A0BCE0181599F4F0E946A0BCE01D6
:1026700087599F4F0E946A0BCE018D599F4F0E9430
:102680006A0BCE01835A9F4F0E946A0BCE018F5A6C
:102690009F4F0E946A0BCE018F579F4F0E946A0B7B
:1026A0000EE011E01A830983CE0101960E949F0675
:1026B00019A308A3CE0180960E949F06BE01695708
:1026C0007F4F8CE294E00E941F0BCE0189579F4FF1
:1026D0000E946A0B0E94380168EE73E080E090E08F
:1026E0000E94C1030E94D50966E371E086E294E08E
:1026F0000E94200C66E371E080E294E00E94200CCE
:1027000080E090E0892B09F425CC0E94E501882324
:1027100009F420CC0E9400001DCC60E070E0CB01E9
:10272000E1CD88E094E00E946A0B8EE094E00E9484
:102730006A0B84E194E00E946A0B8AE194E00E94B3
:102740006A0B80E294E00E946A0B86E294E00E94A9
:102750006A0B8CE294E00E946A0B82E394E00C9492
:102760006A0BEF920F931F93CF93DF93E80134E04E
:1027700047FD34E1042E000C550B57FF03C0519563
:1027800041955109E32E022F242FAE010E94A5147A
:10279000CE01DF91CF911F910F91EF9008958F920D
:1027A0009F92AF92BF92CF92DF92EF92FF92CF9320
:1027B000DF93EC01688179818A819B8161157105C4
:1027C0008105910521F464E279ED8BE597E02DE137
:1027D00033EF41E050E00E94B51949015A019B01D5
:1027E000AC01A7EAB1E40E94D4196B017C01ACEE04
:1027F000B4EFA50194010E94E219C60ED71EE81E8F
:10280000F91EF7FE06C081E0C81AD108E10880E889
:10281000F80AC882D982EA82FB82C701B6019F7793
:10282000DF91CF91FF90EF90DF90CF90BF90AF906E
:102830009F908F9008958F929F92AF92BF92CF9268
:10284000DF92EF92FF9260910001709101018091FF
:10285000020190910301611571058105910521F433
:1028600064E279ED8BE597E02DE133EF41E050E054
:102870000E94B51949015A019B01AC01A7EAB1E4D4
:102880000E94D4196B017C01ACEEB4EFA501940158
:102890000E94E219C60ED71EE81EF91EF7FE06C0FA
:1028A00081E0C81AD108E10880E8F80AC092000166
:1028B000D0920101E0920201F0920301C701B6013A
:1028C0009F77FF90EF90DF90CF90BF90AF909F9059
:1028D0008F9008956093000170930101809302012D
:1028E000909303010895662777270C94041691119D
:1028F0000C942C18803219F089508550C8F708952F
:10290000BB274A3031F4992322F4BDE2909581959A
:102910009F4F0C948C14BB27FB015527AA27880FC7
:10292000991FAA1FA41710F0A41B83955051B9F743
:10293000A05DAA3308F0A95DA193009779F7B111C2
:10294000B1931192CB010C944718A9E0B0E0EBEAE7
:10295000F4E10C94ED196A01F22EB02E102FFBE376
:10296000AF2EA01608F41BE31F5F012F27E0AE0176
:102970004F5F5F4F0E945417BC018981982F997057
:10298000913009F43FC09BE2E1FC04C09E2D9170A0
:10299000E0FC3AC05E2D5071E82FE87083FF46C01E
:1029A00084E0911101C083E0EF2DE81B8F1508F042
:1029B000E0E0D6018E2F20E2552351F1992329F032
:1029C000D6019C93C60101966C0196012D5F3F4F85
:1029D000E2FE24C08EE4D6018C9391E411969C9380
:1029E000119712968C93D9018E2F90E281111BC002
:1029F000E20FF32FF11D10828EEF9FEF2996ECE08E
:102A00000C94091A9DE2C6CF90E2C4CF2D93815059
:102A10008111FCCFCE0ED11CE0E0D0CF8EE6D601E6
:102A20008C9391E6DBCF9D938150E0CF482F44708B
:102A300082FF3DC084E0911101C083E08F1510F446
:102A4000EF2DE81BD6018E2F20E2552309F19923A3
:102A500029F0D6019C93C60101966C0196012D5F69
:102A60003F4FE2FE1BC089E4D6018C938EE41196A1
:102A70008C93119786E412968C93D9018E2F90E255
:102A8000882309F4B5CF9D938150FACF2D938150BF
:102A90008111FCCFCE0ED11CE0E0D9CF89E6D60162
:102AA0008C938EE611968C93119786E6E4CF9B016A
:102AB00077FF02C030E020E0A1E0B0E0911102C059
:102AC000B0E0A0E0F9013196AE0FBF1F8B2C912C26
:102AD000BB2009F461C05401EFEFAE1ABE0AAA0D83
:102AE000BB1DFA161B0619F014F04F2D4A1B51118D
:102AF00088C0E3FC59C07601A42FB0E2A1114FC0F9
:102B0000C40ED11C992309F45BC040E0D601119694
:102B1000F60190836D01552309F448C0012F060F7B
:102B20009A81582F507184FF03C0913309F40150EA
:102B300010160CF047C0093008F008E0EEE2FE2E57
:102B40005B01A01AB10885019194819491082F3FEF
:102B5000320729F4D601FC92F60131966F01621713
:102B6000730794F1021713077CF5DB01A21BB30B6B
:102B7000AA24A394B12CAC0EBD1EAA0DBB1D1196A8
:102B80008C9121503109D601119628153905F4F0A0
:102B9000F60180836D01DBCFB12CA12CA0CFF70112
:102BA000B1937F01A150AACF9111B0CFD601942F3C
:102BB00050E302C05D9391509111FCCFC40ED11C23
:102BC00040E0ACCF01E0BACF80E3DBCF6217730700
:102BD00031F4963388F4953311F4552369F0F601F6
:102BE0008083FD01842F90E2811108C0A40FB11DE4
:102BF0001C9290E080E002CF81E3F1CF919381506D
:102C0000F3CF911183CF8ACFB0E0A0E0EAE0F6E104
:102C10000C94ED195C017B016115710519F0DB0164
:102C20008D939C9385010F5F1F4FF501D0818D2FF0
:102C300090E00E9477146C01892BB9F5DD32B9F56B
:102C40000F5F1F4FD5011196DC91C1E05801F1E0F3
:102C5000AF1AB10843E050E060E770E0C5010E94A0
:102C60002F18892B69F5680182E0C80ED11C45E058
:102C700050E06BE670E0C6010E942F18892B21F40A
:102C8000680197E0C90ED11CE114F10419F0D701D5
:102C9000CD92DC9260E070E080E89FEFC111FFC050
:102CA00060E070E080E89FE7FAC05801BBCFDB32FC
:102CB00029F485010E5F1F4FF501D181C0E0C6CF19
:102CC00043E050E068E670E0C5010E942F18892BB0
:102CD000E9F0F80110E000E020E030E0A9015F0138
:102CE000B0ED8B2E8D0E89E08815C8F19C2E68946E
:102CF00091F88C2F8870C2FF16C0811102C00F5F3F
:102D00001F4F3196D501DC91C92DE9CFE114F104B3
:102D100029F00E5F1F4FF7011183008360E070E020
:102D200080EC9FE7BCC0882311F001501109A5E099
:102D3000B0E00E94D4199B01AC01220F331F441F45
:102D4000551F280D311D411D511D283999E939079D
:102D5000490799E15907A8F2C6609C2ED2CFAEEF81
:102D60008A1206C0C3FD3CC09C2E689493F8C9CF5C
:102D7000DF7DD534A9F580818D3239F4C061DF0162
:102D80001296818162E070E006C0DF018B32C1F3F0
:102D9000119661E070E080535D01A61AB70A8A308F
:102DA000F8F4E0E8CE16ECE0DE065CF4B601660F5F
:102DB000771F660F771FC60ED71ECC0CDD1CC80E02
:102DC000D11C5D01FFEFAF1ABF0A8C9180538A308E
:102DD000A8F1C4FF03C0D194C194D1080C0D1D1DEE
:102DE000C1FF09C0E114F10431F081E0A81AB10873
:102DF000D701AD92BC92CA01B9010E945C18C370A0
:102E0000C33009F490584B015C0120E030E0A90187
:102E10000E945718882309F440C0CFE9D0E017FF7B
:102E200005C0119501951109C7E8D0E06E01B8E120
:102E3000CB1AD10880E2E82EF12C0FC0D501B1CF1A
:102E4000FE0125913591459154910E191F09C50137
:102E5000B4010E94BD184B015C01D501C4010E15DF
:102E60001F0574F72497F594E794CC16DD06A9F7AF
:102E70008A2F880F8B2F881F8F3F49F020E030E08A
:102E8000A901C501B4010E945718811106C082E250
:102E900090E090936D0480936C04C501B401CDB7AC
:102EA000DEB7ECE00C94091A283008F027E033274D
:102EB000DA01990F311D87FD91600096610571055A
:102EC00039F432602E5F3D9330E32A95E1F708959F
:102ED0009F3F30F080387105610509F03C5F3C5F31
:102EE0003D93913008F08068911DDF93CF931F933D
:102EF0000F93FF92EF92192F987F9695E92F969551
:102F00009695E90FFF27E350FF4F99273327EE24CB
:102F1000FF24A701E70105900894079428F4360FD1
:102F2000E71EF81E491F511D660F771F881F991F46
:102F30000694A1F70590079428F4E70EF81E491FA0
:102F4000561FC11D770F881F991F661F0694A1F792
:102F50000590079428F4F80E491F561FC71FD11D6E
:102F6000880F991F661F771F0694A1F70590079495
:102F700020F4490F561FC71FD81F990F661F771FD0
:102F8000881F0694A9F784911095177041F0D69583
:102F9000C79557954795F794E7941A95C1F7E3EAD3
:102FA000F0E0689415901591359165919591059093
:102FB0007FE27395E118F10A430B560BC90BD00958
:102FC000C0F7E10CF11E431F561FC91FD01D7EF430
:102FD000703311F48A95E6CFE894015030F0080F71
:102FE0000AF40027021708F4202F2395022F7A33C2
:102FF00028F079E37D932A95E9F710C07D932A950F
:1030000089F6069497956795379517951794E11863
:10301000F10A430B560BC90BD00998F023957E910A
:1030200073957A3308F070E37C932013B8F77E91A0
:1030300070617D9330F0839571E37D9370E32A9501
:10304000E1F71124EF90FF900F911F91CF91DF9145
:10305000992787FD90950895992788270895FB0162
:10306000DC014150504088F08D9181341CF08B354B
:103070000CF4805E659161341CF06B350CF4605E7D
:10308000861B611171F3990B0895881BFCCFDC013D
:10309000FC01672F71917723E1F7329704C07C918F
:1030A0006D9370836291AE17BF07C8F308950E94B5
:1030B000991808F481E00895E89409C097FB3EF45C
:1030C00090958095709561957F4F8F4F9F4F992375
:1030D000A9F0F92F96E9BB279395F69587957795F3
:1030E0006795B795F111F8CFFAF4BB0F11F460FFB3
:1030F0001BC06F5F7F4F8F4F9F4F16C0882311F00B
:1031000096E911C0772321F09EE8872F762F05C01E
:10311000662371F096E8862F70E060E02AF09A95B9
:10312000660F771F881FDAF7880F9695879597F9AE
:103130000895990F0008550FAA0BE0E8FEEF161648
:103140001706E807F907C0F012161306E407F5079B
:1031500098F0621B730B840B950B39F40A2661F00F
:10316000232B242B252B21F408950A2609F4A140B2
:10317000A6958FEF811D811D08950E94D0180C9493
:1031800041190E94331938F00E943A1920F0952312
:1031900011F00C942A190C94301911240C947519FF
:1031A0000E94521970F3959FC1F3950F50E0551F7F
:1031B000629FF001729FBB27F00DB11D639FAA278C
:1031C000F00DB11DAA1F649F6627B00DA11D661FDB
:1031D000829F2227B00DA11D621F739FB00DA11DFC
:1031E000621F839FA00D611D221F749F3327A00DB6
:1031F000611D231F849F600D211D822F762F6A2F52
:1032000011249F5750409AF0F1F088234AF0EE0FB6
:10321000FF1FBB1F661F771F881F91505040A9F7E3
:103220009E3F510580F00C942A190C9475195F3F4C
:10323000E4F3983ED4F3869577956795B795F7951F
:10324000E7959F5FC1F7FE2B880F911D9695879597
:1032500097F9089597F99F6780E870E060E0089516
:103260009FEF80EC089500240A941616170618069E
:103270000906089500240A9412161306140605067A
:103280000895092E0394000C11F4882352F0BB0F0B
:1032900040F4BF2B11F460FF04C06F5F7F4F8F4F6E
:1032A0009F4F089557FD9058440F551F59F05F3FA9
:1032B00071F04795880F97FB991F61F09F3F79F058
:1032C00087950895121613061406551FF2CF4695DA
:1032D000F1DF08C0161617061806991FF1CF86955C
:1032E0007105610508940895E894BB276627772740
:1032F000CB0197F90895F999FECF92BD81BDF89A57
:10330000992780B50895DB018F939F930E94D4196C
:10331000BF91AF91A29F800D911DA39F900DB29F71
:10332000900D11240895A1E21A2EAA1BBB1BFD01CA
:103330000DC0AA1FBB1FEE1FFF1FA217B307E40794
:10334000F50720F0A21BB30BE40BF50B661F771FEC
:10335000881F991F1A9469F76095709580959095CC
:103360009B01AC01BD01CF010895052E97FB1EF412
:1033700000940E94CC1957FD07D00E94931907FCB6
:1033800003D04EF40C94CC1950954095309521956E
:103390003F4F4F4F5F4F0895909580957095619581
:1033A0007F4F8F4F9F4F08950E941E1AA59F900D2B
:1033B000B49F900DA49F800D911D11240895B7FF17
:1033C0000C94D4190E94D419821B930B08952F9248
:1033D0003F924F925F926F927F928F929F92AF92A5
:1033E000BF92CF92DF92EF92FF920F931F93CF93F2
:1033F000DF93CDB7DEB7CA1BDB0B0FB6F894DEBF89
:103400000FBECDBF09942A88398848885F846E84AE
:103410007D848C849B84AA84B984C884DF80EE80F8
:10342000FD800C811B81AA81B981CE0FD11D0FB601
:10343000F894DEBF0FBECDBFED010895A29FB0018D
:10344000B39FC001A39F700D811D1124911DB29FD8
:10345000700D811D1124911D08955058BB27AA2776
:103460000E94451A0C9441190E94331938F00E94A9
:103470003A1920F039F49F3F19F426F40C943019CE
:103480000EF4E095E7FB0C942A19E92F0E945219DB
:1034900058F3BA17620773078407950720F079F489
:1034A000A6F50C9474190EF4E0950B2EBA2FA02DEE
:1034B0000B01B90190010C01CA01A0011124FF27E1
:1034C000591B99F0593F50F4503E68F11A16F040DC
:1034D000A22F232F342F4427585FF3CF46953795DB
:1034E0002795A795F0405395C9F77EF41F16BA0BA0
:1034F000620B730B840BBAF09150A1F0FF0FBB1F4E
:10350000661F771F881FC2F70EC0BA0F621F731F96
:10351000841F48F4879577956795B795F7959E3FF3
:1035200008F0B0CF9395880F08F09927EE0F979584
:10353000879508950E94AE1A0C9441190E943A1979
:1035400058F00E94331940F029F45F3F29F00C94A1
:103550002A1951110C9475190C9430190E945219A2
:1035600068F39923B1F3552391F3951B550BBB27B2
:10357000AA2762177307840738F09F5F5F4F220FF7
:10358000331F441FAA1FA9F335D00E2E3AF0E0E8EE
:1035900032D091505040E695001CCAF72BD0FE2F38
:1035A00029D0660F771F881FBB1F261737074807CC
:1035B000AB07B0E809F0BB0B802DBF01FF27935884
:1035C0005F4F3AF09E3F510578F00C942A190C9405
:1035D00075195F3FE4F3983ED4F386957795679528
:1035E000B795F7959F5FC9F7880F911D96958795B9
:1035F00097F90895E1E0660F771F881FBB1F6217D8
:1036000073078407BA0720F0621B730B840BBA0B95
:10361000EE1F88F7E09508950E94131B6894B1117E
:103620000C94751908950E945A1988F09F5798F0C4
:10363000B92F9927B751B0F0E1F0660F771F881FB7
:10364000991F1AF0BA95C9F714C0B13091F00E94D1
:103650007419B1E008950C947419672F782F882796
:10366000B85F39F0B93FCCF3869577956795B395F8
:10367000D9F73EF490958095709561957F4F8F4F67
:103680009F4F08950E94991808F48FEF08950E94A3
:103690009918880B990B089597FB072E16F4009440
:1036A00007D077FD09D00E94601B07FC05D03EF4CF
:1036B000909581959F4F0895709561957F4F0895DE
:1036C000AA1BBB1B51E107C0AA1FBB1FA617B70748
:1036D00010F0A61BB70B881F991F5A95A9F7809564
:1036E0009095BC01CD010895EE0FFF1F0590F49158
:1036F000E02D09940F931F93CF93DF9382309105B0
:1037000010F482E090E0E0917004F091710430E0F8
:1037100020E0B0E0A0E0309799F42115310509F4DC
:103720004AC0281B390B24303105D8F58A819B818A
:103730006115710589F1FB0193838283FE0111C03C
:10374000408151810281138148175907E0F04817E1
:10375000590799F4109761F012960C9312971396EB
:103760001C933296CF01DF91CF911F910F91089555
:103770000093700410937104F4CF2115310551F0BA
:103780004217530738F0A901DB019A01BD01DF019F
:10379000F801C1CFEF01F9CF9093710480937004C9
:1037A000CDCFFE01E20FF31F819391932250310997
:1037B00039832883D7CF20916E0430916F04232B57
:1037C00041F4209106013091070130936F0420935A
:1037D0006E0420910401309105012115310541F459
:1037E0002DB73EB74091080150910901241B350BBC
:1037F000E0916E04F0916F04E217F307A0F42E1B22
:103800003F0B2817390778F0AC014E5F5F4F241744
:10381000350748F04E0F5F1F50936F0440936E04BE
:10382000819391939FCFF0E0E0E09CCFCF93DF9323
:103830000097E9F0FC01329713821282A091700484
:10384000B0917104ED0130E020E01097A1F42081E7
:103850003181820F931F20916E0430916F042817DD
:10386000390709F061C0F0936F04E0936E04DF91B3
:10387000CF910895EA01CE17DF07E8F54A815B8111
:103880009E0141155105B1F7E901FB83EA83499196
:103890005991C40FD51FEC17FD0761F48081918108
:1038A0000296840F951FE901998388838281938111
:1038B0009B838A83F0E0E0E012968D919C911397B0
:1038C0000097B9F52D913C911197CD010296820F89
:1038D000931F20916E0430916F042817390739F631
:1038E000309751F51092710410927004B0936F04E8
:1038F000A0936E04BCCFD383C28340815181840FD7
:10390000951FC817D90761F44E5F5F4F8881998171
:10391000480F591F518340838A819B8193838283FF
:103920002115310509F0B0CFF0937104E0937004D4
:103930009ECFFD01DC01C0CF13821282D7CFB0E051
:10394000A0E0E5EAFCE10C94E9198C01009751F440
:10395000CB010E947A1B8C01C801CDB7DEB7E0E134
:103960000C94051AFC01E60FF71F9C012250310947
:10397000E217F30708F49DC0D901CD91DC911197AE
:10398000C617D70798F0C530D10530F3CE0104979C
:103990008617970708F3C61BD70B2297C193D193BD
:1039A0006D937C93CF010E94161CD6CF5B01AC1A9D
:1039B000BD0A4C018C0E9D1EA0917004B091710443
:1039C000512C412CF12CE12C109731F580916E0493
:1039D00090916F048815990509F05CC0461657064A
:1039E00008F058C08091040190910501009741F4BE
:1039F0008DB79EB74091080150910901841B950B2A
:103A0000E817F90708F055C0F0936F04E0936E04CF
:103A1000F90171836083A0CF8D919C9111971296CB
:103A20006C90129713967C901397A815B90559F5C9
:103A30006C0142E0C40ED11CCA14DB0420F1AC01BD
:103A40004A195B09DA011296159780F06282738237
:103A500051834083D9016D937C93E114F10471F09B
:103A6000D7011396FC93EE93129776CF22968C0F84
:103A70009D1FF90191838083F301EFCFF0937104CF
:103A8000E093700469CF4816590608F42C017D01B3
:103A9000D3019ACFCB010E947A1B7C01009749F099
:103AA000AE01B8010E945C1DC8010E94161C87016E
:103AB00053CF10E000E050CFFB01DC0102C00190C9
:103AC0000D9241505040D8F70895FB01DC01019060
:103AD0000D920020E1F7089511E0CDE0D1E004C09F
:103AE000FE010E94741B2196CE30D107C9F7F894CD
:023AF000FFCF06
:103AF20001000000000072048000000000000A06BD
:103B02007B013907090666067E06F1055E00BC00E8
:103B12007701000000001B027B01A8016802D901A5
:103B2200B701CB010D0A006E616E00696E66006F0F
:103B3200766600443A455200443A4F4B007068564C
:103B42006F6C746167653A0063686C566F6C746180
:0C3B520067653A007370646174612C00B8
:107E0000112484B714BE81FFF0D085E080938100F7
:107E100082E08093C00088E18093C10086E0809377
:107E2000C20080E18093C4008EE0C9D0259A86E02C
:107E300020E33CEF91E0309385002093840096BBD3
:107E4000B09BFECF1D9AA8958150A9F7CC24DD24C4
:107E500088248394B5E0AB2EA1E19A2EF3E0BF2EE7
:107E6000A2D0813461F49FD0082FAFD0023811F036
:107E7000013811F484E001C083E08DD089C08234E0
:107E800011F484E103C0853419F485E0A6D080C0E4
:107E9000853579F488D0E82EFF2485D0082F10E0AE
:107EA000102F00270E291F29000F111F8ED06801E7
:107EB0006FC0863521F484E090D080E0DECF843638
:107EC00009F040C070D06FD0082F6DD080E0C81688
:107ED00080E7D80618F4F601B7BEE895C0E0D1E017
:107EE00062D089930C17E1F7F0E0CF16F0E7DF06D8
:107EF00018F0F601B7BEE89568D007B600FCFDCFD4
:107F0000A601A0E0B1E02C9130E011968C91119780
:107F100090E0982F8827822B932B1296FA010C0160
:107F200087BEE89511244E5F5F4FF1E0A038BF0790
:107F300051F7F601A7BEE89507B600FCFDCF97BE46
:107F4000E89526C08437B1F42ED02DD0F82E2BD052
:107F50003CD0F601EF2C8F010F5F1F4F84911BD097
:107F6000EA94F801C1F70894C11CD11CFA94CF0C13
:107F7000D11C0EC0853739F428D08EE10CD085E9AC
:107F80000AD08FE07ACF813511F488E018D01DD067
:107F900080E101D065CF982F8091C00085FFFCCF94
:107FA0009093C60008958091C00087FFFCCF809118
:107FB000C00084FD01C0A8958091C6000895E0E648
:107FC000F0E098E1908380830895EDDF803219F02E
:107FD00088E0F5DFFFCF84E1DECF1F93182FE3DFCA
:107FE0001150E9F7F2DF1F91089580E0E8DFEE27F6
:047FF000FF270994CA
:027FFE00040479
:0400000300007E007B
:00000001FF
