:100000000C9453000C947B000C947B000C947B00AC
:100010000C947B000C947B000C947B000C947B0074
:100020000C947B000C947B000C947B000C947B0064
:100030000C947B000C947B000C947B000C947B0054
:100040000C94B2010C947B000C9422020C94FC01E1
:100050000C947B000C947B000C947B000C947B0034
:100060000C947B000C947B0000000000250028000D
:100070002B0000000000240027002A0004040404D0
:100080000404040402020202020203030303030342
:10009000010204081020408001020408102001021F
:1000A00004081020540211241FBECFEFD8E0DEBF99
:1000B000CDBF21E0ACE1B1E001C01D92AA3CB20786
:1000C000E1F711E0A0E0B1E0E0E6FDE002C005905C
:1000D0000D92AC31B107D9F710E0C3E5D0E004C010
:1000E0002197FE010E94B604C235D107C9F70E94CC
:1000F00087020C94AE060C940000AF92BF92CF9290
:10010000DF92EF92FF920F931F93CF93DF936C01D7
:100110007B018B01040F151FEB015E01AE18BF08B8
:10012000C017D10759F06991D601ED91FC9101906A
:10013000F081E02DC6010995892B79F7C501DF9182
:10014000CF911F910F91FF90EF90DF90CF90BF90D4
:10015000AF900895FC01538D448D252F30E0842FFE
:1001600090E0821B930B541710F0CF9608950197DF
:100170000895FC01918D828D981761F0A28DAE0FCC
:10018000BF2FB11D5D968C91928D9F5F9F73928F53
:1001900090E008958FEF9FEF0895FC01918D828D7F
:1001A000981731F0828DE80FF11D858D90E008954C
:1001B0008FEF9FEF0895FC01918D228D892F90E0A4
:1001C000805C9F4F821B91098F739927089587E266
:1001D00091E00E94DB0021E0892B09F420E0822FCE
:1001E000089580E090E0892B29F00E94E7008111BA
:1001F0000C9400000895FC01A48DA80FB92FB11D27
:10020000A35ABF4F2C91848D90E001968F7399274C
:10021000848FA689B7892C93A089B1898C9183702A
:1002200080648C93938D848D981306C00288F38923
:10023000E02D80818F7D80830895EF92FF920F9350
:100240001F93CF93DF93EC0181E0888F9B8D8C8D82
:1002500098131AC0E889F989808185FF15C09FB776
:10026000F894EE89FF896083E889F9898081837039
:10027000806480839FBF81E090E0DF91CF911F91E8
:100280000F91FF90EF900895F62E0B8D10E00F5F09
:100290001F4F0F731127E02E8C8D8E110CC00FB6DF
:1002A00007FCFACFE889F989808185FFF5CFCE0177
:1002B0000E94FB00F1CFEB8DEC0FFD2FF11DE35AF7
:1002C000FF4FF0829FB7F8940B8FEA89FB898081FA
:1002D0008062CFCFCF93DF93EC01888D8823B9F074
:1002E000AA89BB89E889F9898C9185FD03C0808141
:1002F00086FD0DC00FB607FCF7CF8C9185FFF2CFBE
:10030000808185FFEDCFCE010E94FB00E9CFDF9118
:10031000CF9108950F931F93CF93DF93EC018881C2
:100320009981009759F02A813B812617370730F0D1
:1003300081E0DF91CF911F910F9108958B016F5F45
:100340007F4F0E94E105009759F0998388831B83B2
:100350000A832C813D81232B59F7FC011082E8CFC1
:1003600080E0E7CF1F920F920FB60F9211242F93C8
:100370003F938F939F93AF93BF938091230190916D
:100380002401A0912501B09126013091220123E0A2
:10039000230F2D3758F50196A11DB11D2093220181
:1003A0008093230190932401A0932501B09326010B
:1003B00080911E0190911F01A0912001B091210117
:1003C0000196A11DB11D80931E0190931F01A09362
:1003D0002001B0932101BF91AF919F918F913F91E7
:1003E0002F910F900FBE0F901F90189526E8230FA6
:1003F0000296A11DB11DD2CF1F920F920FB60F9280
:1004000011242F933F934F935F936F937F938F9319
:100410009F93AF93BF93EF93FF9387E291E00E9486
:10042000FB00FF91EF91BF91AF919F918F917F91D1
:100430006F915F914F913F912F910F900FBE0F9051
:100440001F9018951F920F920FB60F9211242F93A1
:100450008F939F93EF93FF93E0913701F0913801D1
:100460008081E0913D01F0913E0182FD1BC09081B1
:10047000809140018F5F8F7320914101821741F07D
:10048000E0914001F0E0E95DFE4F958F80934001DF
:10049000FF91EF919F918F912F910F900FBE0F9031
:1004A0001F9018958081F4CFE7E2F1E01382128269
:1004B00088EE93E0A0E0B0E084839583A683B783C1
:1004C0008AE091E09183808385EC90E09587848732
:1004D00084EC90E09787868780EC90E0918B808B0E
:1004E00081EC90E0938B828B82EC90E0958B848BF7
:1004F00086EC90E0978B868B118E128E138E148E65
:1005000082E090E09093C5018093C4010895CF9359
:10051000DF93CDB7DEB7A7970FB6F894DEBF0FBE57
:10052000CDBF789484B5826084BD84B5816084BD7C
:1005300085B5826085BD85B5816085BD80916E0081
:10054000816080936E0010928100809181008260B2
:1005500080938100809181008160809381008091EF
:1005600080008160809380008091B10084608093DE
:10057000B1008091B00081608093B00080917A00DA
:10058000846080937A0080917A00826080937A0000
:1005900080917A00816080937A0080917A008068EF
:1005A00080937A001092C100E0913701F0913801F8
:1005B00082E08083E0913301F09134011082E09178
:1005C0003501F09136018FEC808310923F01E0916C
:1005D0003B01F0913C0186E08083E0913901F0918C
:1005E0003A01808180618083E0913901F0913A0184
:1005F000808188608083E0913901F0913A018081A7
:1006000080688083E0913901F0913A0180818F7D8B
:100610008083EDE9F0E02491E9E8F0E0849188231B
:1006200099F090E0880F991FFC01EE58FF4FA591BB
:10063000B491FC01E859FF4F859194918FB7F894DC
:10064000EC91E22BEC938FBF8AE0882E912CA12CA9
:10065000B12C00E010E01BA21AA21DA21CA21FA236
:100660001EA270E060E0CE0182960E948A012AA15B
:100670003BA1811133C02115310519F0C9010E9438
:1006800058051BA21AA21FA21EA21DA21CA287E22D
:1006900091E00E94DB001816190644F587E291E00C
:1006A0000E94B90089831A82EEA0FFA08FEFE81A9A
:1006B000F80AB701CE0182960E948A01882339F395
:1006C0002AA13BA18EA19FA1BE016F5F7F4F820F28
:1006D000931F0E94A706FFA2EEA2D9CF1FA21EA2BF
:1006E0006AE171E0C9010E94A706D1CF8AA19BA14E
:1006F000009709F476C00E940B0470931D0160936B
:100700001C016B01770FEE08FF08F7FE6EC06DE26B
:1007100087E291E00E941D0122273327A9012C19AD
:100720003D094E095F0919A2FE01B1967F01CA0178
:10073000B901A50194010E949404605DF7016293E0
:100740007F01211531054105510589F7E114F104B7
:1007500061F001900020E9F73197AF014E195F0970
:10076000B70187E291E00E947D0042E050E068E13D
:1007700071E087E291E00E947D0080911C019091E0
:100780001D0118161906ECF4E090C401F090C501A3
:10079000D0901C01C7010E9447048D1521F06D2DDA
:1007A000C7010E944F04D0901D01FFEFEF1AFF0A0E
:1007B000C7010E9447048D1521F06D2DC7010E94CD
:1007C0004F048AA19BA10E9458050115110509F447
:1007D00042CF0E94E700882309F43DCF0E94000029
:1007E0003ACF60E070E0CB0188CFA701960119A253
:1007F000CE0181967C01CA01B901A50194010E9434
:100800009404605DF70162937F0121153105410574
:10081000510589F79BCF1F93FC0199278827BC01BD
:10082000E89411911032E9F3193010F01E30C8F33A
:100830001B3251F01D3249F4689406C00E94320404
:10084000610F711D811D911D119110531A30B0F36C
:100850003EF490958095709561957F4F8F4F9F4F97
:100860001F910895592F482F372F262F660F771F76
:10087000881F991F660F771F881F991F620F731FAC
:10088000841F951F660F771F881F991F0895F99978
:10089000FECF92BD81BDF89A992780B50895262F85
:1008A000F999FECF1FBA92BD81BD20BD0FB6F89455
:1008B000FA9AF99A0FBE019608952F923F924F929D
:1008C0005F926F927F928F929F92AF92BF92CF92E0
:1008D000DF92EF92FF920F931F93CF93DF93CDB7E9
:1008E000DEB7CA1BDB0B0FB6F894DEBF0FBECDBF61
:1008F00009942A88398848885F846E847D848C8432
:100900009B84AA84B984C884DF80EE80FD800C813A
:100910001B81AA81B981CE0FD11D0FB6F894DEBF1D
:100920000FBECDBFED010895A1E21A2EAA1BBB1B7D
:10093000FD010DC0AA1FBB1FEE1FFF1FA217B307AB
:10094000E407F50720F0A21BB30BE40BF50B661FC1
:10095000771F881F991F1A9469F760957095809585
:1009600090959B01AC01BD01CF010895EE0FFF1FD3
:100970000590F491E02D09940F931F93CF93DF938B
:100980008230910510F482E090E0E091C801F0918E
:10099000C90130E020E0B0E0A0E0309799F42115E3
:1009A000310509F44AC0281B390B24303105D8F52C
:1009B0008A819B816115710589F1FB019383828393
:1009C000FE0111C0408151810281138148175907EE
:1009D000E0F04817590799F4109761F012960C93BC
:1009E000129713961C933296CF01DF91CF911F91EE
:1009F0000F9108950093C8011093C901F4CF2115F8
:100A0000310551F04217530738F0A901DB019A0173
:100A1000BD01DF01F801C1CFEF01F9CF9093C9010A
:100A20008093C801CDCFFE01E20FF31F8193919314
:100A30002250310939832883D7CF2091C6013091C4
:100A4000C701232B41F4209102013091030130931F
:100A5000C7012093C60120910001309101012115A9
:100A6000310541F42DB73EB7409104015091050185
:100A7000241B350BE091C601F091C701E217F30783
:100A8000A0F42E1B3F0B2817390778F0AC014E5FFE
:100A90005F4F2417350748F04E0F5F1F5093C70173
:100AA0004093C601819391939FCFF0E0E0E09CCF0B
:100AB000CF93DF930097E9F0FC0132971382128203
:100AC000A091C801B091C901ED0130E020E010977C
:100AD000A1F420813181820F931F2091C6013091B2
:100AE000C7012817390709F061C0F093C701E093E7
:100AF000C601DF91CF910895EA01CE17DF07E8F52F
:100B00004A815B819E0141155105B1F7E901FB83E3
:100B1000EA8349915991C40FD51FEC17FD0761F481
:100B2000808191810296840F951FE90199838883C2
:100B3000828193819B838A83F0E0E0E012968D911D
:100B40009C9113970097B9F52D913C911197CD0188
:100B50000296820F931F2091C6013091C70128177A
:100B6000390739F6309751F51092C9011092C80132
:100B7000B093C701A093C601BCCFD383C283408189
:100B80005181840F951FC817D90761F44E5F5F4FDD
:100B900088819981480F591F518340838A819B81A5
:100BA000938382832115310509F0B0CFF093C901F9
:100BB000E093C8019ECFFD01DC01C0CF13821282F9
:100BC000D7CFB0E0A0E0E7EEF5E00C945F048C0135
:100BD000009751F4CB010E94BC048C01C801CDB731
:100BE000DEB7E0E10C947B04FC01E60FF71F9C01EB
:100BF00022503109E217F30708F49DC0D901CD91C5
:100C0000DC911197C617D70798F0C530D10530F39E
:100C1000CE0104978617970708F3C61BD70B2297B8
:100C2000C193D1936D937C93CF010E945805D6CF89
:100C30005B01AC1ABD0A4C018C0E9D1EA091C8012F
:100C4000B091C901512C412CF12CE12C109731F5B8
:100C50008091C6019091C7018815990509F05CC083
:100C60004616570608F058C0809100019091010186
:100C7000009741F48DB79EB7409104015091050152
:100C8000841B950BE817F90708F055C0F093C701CE
:100C9000E093C601F90171836083A0CF8D919C918F
:100CA000119712966C90129713967C901397A81533
:100CB000B90559F56C0142E0C40ED11CCA14DB041D
:100CC00020F1AC014A195B09DA011296159780F000
:100CD0006282738251834083D9016D937C93E114C6
:100CE000F10471F0D7011396FC93EE93129776CF2F
:100CF00022968C0F9D1FF90191838083F301EFCF22
:100D0000F093C901E093C80169CF4816590608F469
:100D10002C017D01D3019ACFCB010E94BC047C0140
:100D2000009749F0AE01B8010E949E06C8010E94DA
:100D30005805870153CF10E000E050CFFB01DC01E4
:100D400002C001900D9241505040D8F70895FB0128
:100D5000DC0101900D920020E1F70895F894FFCF97
:100D60000000CA018000000000001D017D00AA00F3
:0C0D70006A01DB00B900CD000D0A000094
:107E0000112484B714BE81FFF0D085E080938100F7
:107E100082E08093C00088E18093C10086E0809377
:107E2000C20080E18093C4008EE0C9D0259A86E02C
:107E300020E33CEF91E0309385002093840096BBD3
:107E4000B09BFECF1D9AA8958150A9F7CC24DD24C4
:107E500088248394B5E0AB2EA1E19A2EF3E0BF2EE7
:107E6000A2D0813461F49FD0082FAFD0023811F036
:107E7000013811F484E001C083E08DD089C08234E0
:107E800011F484E103C0853419F485E0A6D080C0E4
:107E9000853579F488D0E82EFF2485D0082F10E0AE
:107EA000102F00270E291F29000F111F8ED06801E7
:107EB0006FC0863521F484E090D080E0DECF843638
:107EC00009F040C070D06FD0082F6DD080E0C81688
:107ED00080E7D80618F4F601B7BEE895C0E0D1E017
:107EE00062D089930C17E1F7F0E0CF16F0E7DF06D8
:107EF00018F0F601B7BEE89568D007B600FCFDCFD4
:107F0000A601A0E0B1E02C9130E011968C91119780
:107F100090E0982F8827822B932B1296FA010C0160
:107F200087BEE89511244E5F5F4FF1E0A038BF0790
:107F300051F7F601A7BEE89507B600FCFDCF97BE46
:107F4000E89526C08437B1F42ED02DD0F82E2BD052
:107F50003CD0F601EF2C8F010F5F1F4F84911BD097
:107F6000EA94F801C1F70894C11CD11CFA94CF0C13
:107F7000D11C0EC0853739F428D08EE10CD085E9AC
:107F80000AD08FE07ACF813511F488E018D01DD067
:107F900080E101D065CF982F8091C00085FFFCCF94
:107FA0009093C60008958091C00087FFFCCF809118
:107FB000C00084FD01C0A8958091C6000895E0E648
:107FC000F0E098E1908380830895EDDF803219F02E
:107FD00088E0F5DFFFCF84E1DECF1F93182FE3DFCA
:107FE0001150E9F7F2DF1F91089580E0E8DFEE27F6
:047FF000FF270994CA
:027FFE00040479
:0400000300007E007B
:00000001FF
