:020000040000FA
:100000000C9463000C948B000C948B000C94800473
:100010000C9480040C9480040C948B000C948B0042
:100020000C948B000C948B000C948B000C948B0024
:100030000C948B000C948B000C948B000C948B0014
:100040000C94DE030C948B000C944E040C94280446
:100050000C948B000C948B000C948B000C948B00F4
:100060000C948B000C948B000000000024002700EF
:100070002A0000000008000201000003040700003D
:1000800000000000000000000000230026002900FE
:1000900000000000250028002B00040404040404D0
:1000A0000404020202020202030303030303010227
:1000B00004081020408001020408102001020408F6
:1000C0001020F8046B0711241FBECFEFD8E0DEBF6D
:1000D000CDBF22E0AEE2B1E001C01D92A934B2076B
:1000E000E1F711E0A0E0B1E0E6EEF3E102C0059037
:1000F0000D92AE32B107D9F710E0C2E6D0E004C0ED
:100100002197FE010E94EE07C136D107C9F70E9470
:10011000C6050C94E6090C9400000895AF92BF92B6
:10012000CF92DF92EF92FF920F931F93CF93DF93C3
:100130006C017B018B01040F151FEB015E01AE18F2
:10014000BF08C017D10759F06991D601ED91FC9114
:100150000190F081E02DC6010995892B79F7C50141
:10016000DF91CF911F910F91FF90EF90DF90CF9093
:10017000BF90AF900895FC01538D448D252F30E042
:10018000842F90E0821B930B541710F0CF960895A4
:1001900001970895FC01918D828D981761F0A28DD1
:1001A000AE0FBF2FB11D5D968C91928D9F5F9F7397
:1001B000928F90E008958FEF9FEF08952FB7F894F6
:1001C0008091790190917A01A0917B01B0917C019D
:1001D0002FBF8093850190938601A0938701B093F0
:1001E00088018DE791E00E94CA0097FF26C02FB7D3
:1001F000F8948091790190917A01A0917B01B0915E
:100200007C012FBF4091850150918601609187014B
:1002100070918801841B950BA60BB70B409181014F
:100220005091820160918301709184018417950738
:10023000A607B707B0F28FEF9FEF0895FC01918DED
:10024000828D981731F0828DE80FF11D858D90E039
:1002500008958FEF9FEF0895FC01918D228D892FD6
:1002600090E0805C9F4F821B91098F7399270895BE
:100270008DE791E00E942C0121E0892B09F420E018
:10028000822F0895FC01A48DA80FB92FB11DA35A88
:10029000BF4F2C91848D90E001968F739927848FA6
:1002A000A689B7892C93A089B1898C9183708064C9
:1002B0008C93938D848D981306C00288F389E02D6A
:1002C00080818F7D80830895EF92FF920F931F931B
:1002D000CF93DF93EC0181E0888F9B8D8C8D9813F9
:1002E0001AC0E889F989808185FF15C09FB7F89405
:1002F000EE89FF896083E889F98980818370806451
:1003000080839FBF81E090E0DF91CF911F910F919B
:10031000FF90EF900895F62E0B8D10E00F5F1F4FAA
:100320000F731127E02E8C8D8E110CC00FB607FCB9
:10033000FACFE889F989808185FFF5CFCE010E9447
:100340004201F1CFEB8DEC0FFD2FF11DE35AFF4F72
:10035000F0829FB7F8940B8FEA89FB8980818062D5
:10036000CFCFCF93DF93EC01888D8823B9F0AA8992
:10037000BB89E889F9898C9185FD03C0808186FD60
:100380000DC00FB607FCF7CF8C9185FFF2CF8081AF
:1003900085FFEDCFCE010E944201E9CFDF91CF91E1
:1003A000089590E0FC01EE58FF4F2491FC01E255C6
:1003B000FF4F3491FC01E656FF4FE491EE23C9F064
:1003C000222339F0233001F1A8F4213019F1223031
:1003D00029F1F0E0EE0FFF1FE057FF4FA591B49118
:1003E0008FB7F894EC91611126C030953E233C9371
:1003F0008FBF08952730A9F02830C9F0243049F77D
:10040000809180008F7D03C0809180008F778093E2
:100410008000DFCF84B58F7784BDDBCF84B58F7D3F
:10042000FBCF8091B0008F778093B000D2CF8091C6
:10043000B0008F7DF9CF3E2BDACFCF93DF9390E0E2
:10044000FC01E255FF4F249186569F4FFC01849199
:100450008823D1F090E0880F991FFC01E859FF4FE5
:10046000A591B491FC01E057FF4FC591D491611162
:100470000EC09FB7F8948C91E22FE0958E238C9359
:100480002881E223E8839FBFDF91CF9108958FB742
:10049000F894EC91E22BEC938FBFF6CF2091700192
:1004A000309171012817390771F490916E01809194
:1004B0006F01981741F0E0916E01F0E0E25DFE4FB0
:1004C000808190E008958FEF9FEF08950895EF9257
:1004D000FF920F931F93CF93DF93DC015C96ED9017
:1004E000FC905D97E114F10479F481E090E01396BB
:1004F0009C938E93129790E080E0DF91CF911F91B3
:100500000F91FF90EF9008955196ED91FC915297C5
:1005100050968C915097982F90950FB75E962C918E
:100520005E97122F127021FD6095F894208111239F
:1005300019F1282B2083E7012197F1F728E0462FB6
:1005400050E0308160FF1AC0382B3083E7012197DB
:10055000F1F7BA0175956795215089F7112381F05C
:100560008081892380830FBF5C968D919C91019738
:10057000F1F781E090E0C1CF2923DCCF3923E5CF2B
:100580009081892BEFCF2091700130917101281754
:10059000390771F480916F0120916E0190E0805CC9
:1005A0009F4F821B910960E470E00E94C607089586
:1005B00090E080E00895209170013091710128173A
:1005C0003907B9F490916E0180916F01981789F005
:1005D000E0916E01F0E0E25DFE4F808120916E01BE
:1005E00030E02F5F3F4F2F73332720936E0190E051
:1005F00008958FEF9FEF089590E080E00895FC014B
:1006000080819181009711F00C94900808950F93C8
:100610001F93CF93DF93EC0188819981009759F064
:100620002A813B812617370730F081E0DF91CF9197
:100630001F910F9108958B016F5F7F4F0E941909E1
:10064000009759F0998388831B830A832C813D810D
:10065000232B59F7FC011082E8CF80E0E7CF0F93FE
:100660001F93CF93DF93EC018B010E940703288136
:100670003981811112C02115310519F0C9010E947B
:100680009008198218821D821C821B821A82CE0158
:10069000DF91CF911F910F9108951D830C836CE220
:1006A00071E0C9010E94DF09F2CF0F931F93CF932E
:1006B000DF93CDB7DEB728970FB6F894DEBF0FBE35
:1006C000CDBF1A8219821C821B821E821D8270E09D
:1006D00060E0CE0101960E942F030E94DE0097FD8C
:1006E0001EC08D309105D9F08F8318860D811E8133
:1006F0000F5F1F4FB801CE0101960E9407038823A8
:1007000061F329813A818D819E81BE01695F7F4FAE
:10071000820F931F0E94DF091E830D83DECF80911D
:10072000200290912102009761F169817A8161151F
:10073000710529F140912202509123022D813E81C1
:1007400042175307E0F00E94DF098D819E8190934C
:100750002502809324021E821D82CE0101960E94F2
:10076000FF0281E08093730128960FB6F894DEBFF4
:100770000FBECDBFDF91CF911F910F9108950E94C1
:10078000900889819A8190932102809320028B8125
:100790009C8190932302809322028D819E8190936D
:1007A0002502809324021A8219821C821B82D3CFD5
:1007B0000E94380181110C94550308951F920F92E5
:1007C0000FB60F9211242F933F938F939F93AF9364
:1007D000BF938091790190917A01A0917B01B091B2
:1007E0007C013091780123E0230F2D3758F50196D5
:1007F000A11DB11D209378018093790190937A0116
:10080000A0937B01B0937C0180917401909175015C
:10081000A0917601B09177010196A11DB11D809341
:10082000740190937501A0937601B0937701BF9105
:10083000AF919F918F913F912F910F900FBE0F908D
:100840001F90189526E8230F0296A11DB11DD2CF47
:100850001F920F920FB60F9211242F933F934F9335
:100860005F936F937F938F939F93AF93BF93EF9318
:10087000FF938DE791E00E944201FF91EF91BF91BC
:10088000AF919F918F917F916F915F914F913F9128
:100890002F910F900FBE0F901F9018951F920F92DF
:1008A0000FB60F9211242F938F939F93EF93FF9383
:1008B000E0918D01F0918E018081E0919301F091A2
:1008C000940182FD1BC09081809196018F5F8F7390
:1008D00020919701821741F0E0919601F0E0E358F2
:1008E000FE4F958F80939601FF91EF919F918F918D
:1008F0002F910F900FBE0F901F9018958081F4CF0D
:100900001F920F920FB60F9211242F933F934F9384
:100910005F936F937F938F939F93AF93BF93EF9367
:10092000FF93E0917001F0917101309749F0A68535
:10093000B7858585968D91FF14C09C918923A1F47C
:10094000FF91EF91BF91AF919F918F917F916F91A7
:100950005F914F913F912F910F900FBE0F901F907D
:1009600018959C91892361F7A389B4899C91858905
:10097000809589238C93868997890197F1F7608DFB
:10098000718DA685B785558538E020E0CB010197AC
:10099000F1F7822F90E095958795282F4C9145236C
:1009A00009F02068315091F7868D81FD2095809166
:1009B0006F0190E001968F73992730916E0138177F
:1009C00099F0A0916F01B0E0A25DBE4F2C9380938F
:1009D0006F01828D938D0197F1F7A389B4898C9172
:1009E0009589892B8C93ACCF868D8160868FF1CFD2
:1009F0001092800110927F0188EE93E0A0E0B0E0B9
:100A00008093810190938201A0938301B09384012C
:100A10002AE031E030937E0120937D0125EC30E027
:100A200030938A012093890124EC30E030938C01CB
:100A300020938B0120EC30E030938E0120938D01C8
:100A400021EC30E03093900120938F0122EC30E0D4
:100A5000309392012093910126EC30E03093940181
:100A60002093930110929601109297011092980191
:100A700010929901109229021092280280932A0262
:100A800090932B02A0932C02B0932D028CE191E065
:100A9000909327028093260210923D0210923C020E
:100AA00010923F0210923E021092410210924002B8
:100AB0001092430210924202609144026E7F6D7F59
:100AC000609344026695617081E0682783E00E942C
:100AD000D10161E083E00E941D02E1EBF0E0E491CE
:100AE000E0933602EDE9F0E0E491F0E0EE0FFF1F55
:100AF000E057FF4F8591949190933802809337028D
:100B000060E082E00E941D028091440281FD04C0E9
:100B100061E082E00E94D10182E080933202E0EB4A
:100B2000F0E0E491E0933302ECE9F0E0E491F0E0EE
:100B3000EE0FFF1FEA57FF4F859194919093350276
:100B4000809334021092210210922002109223020C
:100B500010922202109225021092240270E060E0AE
:100B600080E292E00E942F0310921B0210921A0260
:100B700010921D0210921C0210921F0210921E026F
:100B800070E060E08AE192E00C942F03CF93DF9352
:100B900000D0CDB7DEB7789484B5826084BD84B5CB
:100BA000816084BD85B5826085BD85B5816085BD68
:100BB00080916E00816080936E0010928100809120
:100BC00081008260809381008091810081608093A8
:100BD0008100809180008160809380008091B100CD
:100BE00084608093B1008091B00081608093B000F8
:100BF00080917A00846080937A0080917A0082608C
:100C000080937A0080917A00816080937A0080914D
:100C10007A00806880937A001092C10061E089E0D8
:100C20000E941D0261E089E00E94D101E0918D01E6
:100C3000F0918E0182E08083E0918901F0918A0138
:100C40001082E0918B01F0918C018FEC80831092E7
:100C50009501E0919101F091920186E08083E0910D
:100C60008F01F0919001808180618083E0918F01FC
:100C7000F0919001808188608083E0918F01F091F4
:100C80009001808180688083E0918F01F0919001D4
:100C900080818F7D808310924102109240021092D9
:100CA0003F0210923E0210923D0210923C028DE9EA
:100CB00091E09093430280934202909132029631E8
:100CC00008F047C02DEB30E030933D0220933C020A
:100CD0002BE931E030933F0220933E022CE231E0D9
:100CE00030934102209340022091680084E09830C4
:100CF00048F031E09E3008F430E081E001C0880F18
:100D00003A95EAF7822B809368002DE630E0983020
:100D100050F02BE630E09E3030F02CE630E096319B
:100D200010F030E020E030933A0220933902292F6E
:100D300030E0983008F0C2C081E001C0880F9A9579
:100D4000EAF780933B02809142029091430201971F
:100D5000F1F78091400290914102892B49F1E09195
:100D60007001F091710182E0E632F80709F13097E5
:100D700039F0A389B4899C918589809589238C93C6
:100D8000809144028E7F8093440210926F011092F2
:100D90006E0186E292E09093710180937001E09180
:100DA0003902F0913A02808190913B02892B808335
:100DB0006AE070E080E292E00E9407036EE170E07A
:100DC0008AE192E00E940703EE24E394809173018C
:100DD0008823C9F04091240250912502609120029D
:100DE0007091210286E292E00E948E006DE086E220
:100DF00092E00E94670270E060E080E292E00E9470
:100E00002F031092730186E292E00E94C30218162B
:100E1000190664F586E292E00E94DB02F82E8983CF
:100E20001A8200911E0210911F020F5F1F4FB8011E
:100E30008AE192E00E940703882399F020911A0228
:100E400030911B0280911E0290911F02BE016F5FC4
:100E50007F4F820F931F0E94DF0910931F020093A0
:100E60001E028DE0F81202C0E092720180917201C0
:100E70008823E1F040911E0250911F0260911A02F6
:100E800070911B028DE791E00E948E0042E050E0DD
:100E90006AE271E08DE791E00E948E0070E060E010
:100EA0008AE192E00E942F03109272010E943801A1
:100EB000882309F48BCF0E94550388CF9E3040F4DD
:100EC0002850310981E001C0880F2A95EAF739CF0F
:100ED0002E503109F7CF8AE192E00E94FF0280E2B2
:100EE00092E00E94FF028CE191E0909327028093B0
:100EF000260280917001909171018652924071F4A6
:100F0000E0913902F0913A02908180913B02809504
:100F100089238083109271011092700108952F929D
:100F20003F924F925F926F927F928F929F92AF9279
:100F3000BF92CF92DF92EF92FF920F931F93CF93C6
:100F4000DF93CDB7DEB7CA1BDB0B0FB6F894DEBF5D
:100F50000FBECDBF09942A88398848885F846E8483
:100F60007D848C849B84AA84B984C884DF80EE80CD
:100F7000FD800C811B81AA81B981CE0FD11D0FB6D6
:100F8000F894DEBF0FBECDBFED01089597FB072E8D
:100F900016F4009407D077FD09D00E94DA0707FC09
:100FA00005D03EF4909581959F4F08957095619579
:100FB0007F4F0895AA1BBB1B51E107C0AA1FBB1F8F
:100FC000A617B70710F0A61BB70B881F991F5A95D5
:100FD000A9F780959095BC01CD010895EE0FFF1FF4
:100FE0000590F491E02D09940F931F93CF93DF9315
:100FF0008230910510F482E090E0E0914702F09198
:10100000480230E020E0B0E0A0E0309799F42115EC
:10101000310509F44AC0281B390B24303105D8F5B5
:101020008A819B816115710589F1FB01938382831C
:10103000FE0111C040815181028113814817590777
:10104000E0F04817590799F4109761F012960C9345
:10105000129713961C933296CF01DF91CF911F9177
:101060000F9108950093470210934802F4CF211581
:10107000310551F04217530738F0A901DB019A01FD
:10108000BD01DF01F801C1CFEF01F9CF9093480214
:1010900080934702CDCFFE01E20FF31F819391931E
:1010A0002250310939832883D7CF209145023091CE
:1010B0004602232B41F42091020130910301309329
:1010C0004602209345022091000130910101211533
:1010D000310541F42DB73EB740910401509105010F
:1010E000241B350BE0914502F0914602E217F3070D
:1010F000A0F42E1B3F0B2817390778F0AC014E5F88
:101100005F4F2417350748F04E0F5F1F509346027C
:1011100040934502819391939FCFF0E0E0E09CCF14
:10112000CF93DF930097E9F0FC013297138212828C
:10113000A0914702B0914802ED0130E020E0109705
:10114000A1F420813181820F931F209145023091BB
:1011500046022817390709F061C0F0934602E09370
:101160004502DF91CF910895EA01CE17DF07E8F538
:101170004A815B819E0141155105B1F7E901FB836D
:10118000EA8349915991C40FD51FEC17FD0761F40B
:10119000808191810296840F951FE901998388834C
:1011A000828193819B838A83F0E0E0E012968D91A7
:1011B0009C9113970097B9F52D913C911197CD0112
:1011C0000296820F931F2091450230914602281704
:1011D000390739F6309751F51092480210924702BC
:1011E000B0934602A0934502BCCFD383C283408113
:1011F0005181840F951FC817D90761F44E5F5F4F67
:1012000088819981480F591F518340838A819B812E
:10121000938382832115310509F0B0CFF093480202
:10122000E09347029ECFFD01DC01C0CF1382128202
:10123000D7CFB0E0A0E0EFE1F9E00C9491078C018A
:10124000009751F4CB010E94F4078C01C801CDB77F
:10125000DEB7E0E10C94AD07FC01E60FF71F9C013F
:1012600022503109E217F30708F49DC0D901CD914E
:10127000DC911197C617D70798F0C530D10530F328
:10128000CE0104978617970708F3C61BD70B229742
:10129000C193D1936D937C93CF010E949008D6CFD8
:1012A0005B01AC1ABD0A4C018C0E9D1EA091470239
:1012B000B0914802512C412CF12CE12C109731F5C2
:1012C00080914502909146028815990509F05CC00D
:1012D0004616570608F058C0809100019091010110
:1012E000009741F48DB79EB74091040150910501DC
:1012F000841B950BE817F90708F055C0F0934602D8
:10130000E0934502F90171836083A0CF8D919C9198
:10131000119712966C90129713967C901397A815BC
:10132000B90559F56C0142E0C40ED11CCA14DB04A6
:1013300020F1AC014A195B09DA011296159780F089
:101340006282738251834083D9016D937C93E1144F
:10135000F10471F0D7011396FC93EE93129776CFB8
:1013600022968C0F9D1FF90191838083F301EFCFAB
:10137000F0934802E093470269CF4816590608F4F3
:101380002C017D01D3019ACFCB010E94F4077C018F
:10139000009749F0AE01B8010E94D609C8010E9429
:1013A0009008870153CF10E000E050CFFB01DC0133
:1013B00002C001900D9241505040D8F70895FB01B2
:1013C000DC0101900D920020E1F7089510E0C2E6E3
:1013D000D0E004C0FE010E94EE072196C336D1077B
:1013E000C9F7F894FFCF0000490280000000000018
:1013F00064018E00BB00B1012C01CA001E01000077
:10140000000067028E00FC026602C302DB024E028D
:041410000D0A0000C1
:107E0000112484B714BE81FFF0D085E080938100F7
:107E100082E08093C00088E18093C10086E0809377
:107E2000C20080E18093C4008EE0C9D0259A86E02C
:107E300020E33CEF91E0309385002093840096BBD3
:107E4000B09BFECF1D9AA8958150A9F7CC24DD24C4
:107E500088248394B5E0AB2EA1E19A2EF3E0BF2EE7
:107E6000A2D0813461F49FD0082FAFD0023811F036
:107E7000013811F484E001C083E08DD089C08234E0
:107E800011F484E103C0853419F485E0A6D080C0E4
:107E9000853579F488D0E82EFF2485D0082F10E0AE
:107EA000102F00270E291F29000F111F8ED06801E7
:107EB0006FC0863521F484E090D080E0DECF843638
:107EC00009F040C070D06FD0082F6DD080E0C81688
:107ED00080E7D80618F4F601B7BEE895C0E0D1E017
:107EE00062D089930C17E1F7F0E0CF16F0E7DF06D8
:107EF00018F0F601B7BEE89568D007B600FCFDCFD4
:107F0000A601A0E0B1E02C9130E011968C91119780
:107F100090E0982F8827822B932B1296FA010C0160
:107F200087BEE89511244E5F5F4FF1E0A038BF0790
:107F300051F7F601A7BEE89507B600FCFDCF97BE46
:107F4000E89526C08437B1F42ED02DD0F82E2BD052
:107F50003CD0F601EF2C8F010F5F1F4F84911BD097
:107F6000EA94F801C1F70894C11CD11CFA94CF0C13
:107F7000D11C0EC0853739F428D08EE10CD085E9AC
:107F80000AD08FE07ACF813511F488E018D01DD067
:107F900080E101D065CF982F8091C00085FFFCCF94
:107FA0009093C60008958091C00087FFFCCF809118
:107FB000C00084FD01C0A8958091C6000895E0E648
:107FC000F0E098E1908380830895EDDF803219F02E
:107FD00088E0F5DFFFCF84E1DECF1F93182FE3DFCA
:107FE0001150E9F7F2DF1F91089580E0E8DFEE27F6
:047FF000FF270994CA
:027FFE00040479
:00000001FF
